{
  "_format": "hh-sol-artifact-1",
  "contractName": "AIRiskManager",
  "sourceName": "contracts/AIRiskManager.sol",
  "abi": [
    {
      "anonymous": false,
      "inputs": [
        {
          "indexed": true,
          "internalType": "address",
          "name": "user",
          "type": "address"
        },
        {
          "indexed": false,
          "internalType": "enum AIRiskManager.RiskTier",
          "name": "tier",
          "type": "uint8"
        }
      ],
      "name": "RiskScored",
      "type": "event"
    },
    {
      "inputs": [
        {
          "internalType": "address",
          "name": "user",
          "type": "address"
        }
      ],
      "name": "getRiskScore",
      "outputs": [
        {
          "internalType": "enum AIRiskManager.RiskTier",
          "name": "",
          "type": "uint8"
        }
      ],
      "stateMutability": "view",
      "type": "function"
    },
    {
      "inputs": [
        {
          "internalType": "address",
          "name": "",
          "type": "address"
        }
      ],
      "name": "riskScores",
      "outputs": [
        {
          "internalType": "enum AIRiskManager.RiskTier",
          "name": "",
          "type": "uint8"
        }
      ],
      "stateMutability": "view",
      "type": "function"
    },
    {
      "inputs": [
        {
          "internalType": "address",
          "name": "user",
          "type": "address"
        },
        {
          "internalType": "uint8",
          "name": "score",
          "type": "uint8"
        }
      ],
      "name": "setRiskScore",
      "outputs": [],
      "stateMutability": "nonpayable",
      "type": "function"
    }
  ],
  "bytecode": "0x608060405234801561001057600080fd5b506104c2806100206000396000f3fe608060405234801561001057600080fd5b50600436106100415760003560e01c806305ddd11a146100465780635e5b875214610062578063dc08706d14610092575b600080fd5b610060600480360381019061005b9190610310565b6100c2565b005b61007c60048036038101906100779190610350565b6101ff565b60405161008991906103f4565b60405180910390f35b6100ac60048036038101906100a79190610350565b61021f565b6040516100b991906103f4565b60405180910390f35b6003808111156100d5576100d461037d565b5b60ff168160ff16111561011d576040517f08c379a00000000000000000000000000000000000000000000000000000000081526004016101149061046c565b60405180910390fd5b8060ff1660038111156101335761013261037d565b5b6000808473ffffffffffffffffffffffffffffffffffffffff1673ffffffffffffffffffffffffffffffffffffffff16815260200190815260200160002060006101000a81548160ff021916908360038111156101935761019261037d565b5b02179055508173ffffffffffffffffffffffffffffffffffffffff167f248517b40f7b91692e1a4d22251b5d93cb2813773fbdfed259f89cad4c0460578260ff1660038111156101e6576101e561037d565b5b6040516101f391906103f4565b60405180910390a25050565b60006020528060005260406000206000915054906101000a900460ff1681565b60008060008373ffffffffffffffffffffffffffffffffffffffff1673ffffffffffffffffffffffffffffffffffffffff16815260200190815260200160002060009054906101000a900460ff169050919050565b600080fd5b600073ffffffffffffffffffffffffffffffffffffffff82169050919050565b60006102a482610279565b9050919050565b6102b481610299565b81146102bf57600080fd5b50565b6000813590506102d1816102ab565b92915050565b600060ff82169050919050565b6102ed816102d7565b81146102f857600080fd5b50565b60008135905061030a816102e4565b92915050565b6000806040838503121561032757610326610274565b5b6000610335858286016102c2565b9250506020610346858286016102fb565b9150509250929050565b60006020828403121561036657610365610274565b5b6000610374848285016102c2565b91505092915050565b7f4e487b7100000000000000000000000000000000000000000000000000000000600052602160045260246000fd5b600481106103bd576103bc61037d565b5b50565b60008190506103ce826103ac565b919050565b60006103de826103c0565b9050919050565b6103ee816103d3565b82525050565b600060208201905061040960008301846103e5565b92915050565b600082825260208201905092915050565b7f496e76616c69642073636f726500000000000000000000000000000000000000600082015250565b6000610456600d8361040f565b915061046182610420565b602082019050919050565b6000602082019050818103600083015261048581610449565b905091905056fea2646970667358221220626f20df2ab9f5cb9723afdd91df0e780751156c609a56655b22d45285cec08d64736f6c63430008140033",
  "linkReferences": {},
  "deployedLinkReferences": {}
}