{
  "_format": "hh-sol-artifact-1",
  "contractName": "VaultCore",
  "sourceName": "contracts/VaultCore.sol",
  "abi": [
    {
      "inputs": [
        {
          "internalType": "address",
          "name": "_priceFeed",
          "type": "address"
        },
        {
          "internalType": "address",
          "name": "_riskManager",
          "type": "address"
        },
        {
          "internalType": "address",
          "name": "_ccipRouter",
          "type": "address"
        },
        {
          "internalType": "address",
          "name": "_vrfCoordinator",
          "type": "address"
        },
        {
          "internalType": "bytes32",
          "name": "_keyHash",
          "type": "bytes32"
        },
        {
          "internalType": "uint64",
          "name": "_subscriptionId",
          "type": "uint64"
        }
      ],
      "stateMutability": "nonpayable",
      "type": "constructor"
    },
    {
      "inputs": [
        {
          "internalType": "address",
          "name": "have",
          "type": "address"
        },
        {
          "internalType": "address",
          "name": "want",
          "type": "address"
        }
      ],
      "name": "OnlyCoordinatorCanFulfill",
      "type": "error"
    },
    {
      "anonymous": false,
      "inputs": [
        {
          "indexed": false,
          "internalType": "uint256",
          "name": "assetId",
          "type": "uint256"
        },
        {
          "indexed": false,
          "internalType": "uint256",
          "name": "amount",
          "type": "uint256"
        },
        {
          "indexed": false,
          "internalType": "address",
          "name": "borrower",
          "type": "address"
        }
      ],
      "name": "CrossChainLoanApproval",
      "type": "event"
    },
    {
      "anonymous": false,
      "inputs": [
        {
          "indexed": false,
          "internalType": "address",
          "name": "borrower",
          "type": "address"
        },
        {
          "indexed": false,
          "internalType": "uint256",
          "name": "amount",
          "type": "uint256"
        },
        {
          "indexed": false,
          "internalType": "uint256",
          "name": "loanId",
          "type": "uint256"
        },
        {
          "indexed": false,
          "internalType": "uint8",
          "name": "riskTier",
          "type": "uint8"
        }
      ],
      "name": "LoanIssued",
      "type": "event"
    },
    {
      "anonymous": false,
      "inputs": [
        {
          "indexed": false,
          "internalType": "uint256",
          "name": "loanId",
          "type": "uint256"
        }
      ],
      "name": "LoanLiquidated",
      "type": "event"
    },
    {
      "anonymous": false,
      "inputs": [
        {
          "indexed": false,
          "internalType": "uint256",
          "name": "selectedLoanId",
          "type": "uint256"
        }
      ],
      "name": "RandomLoanSelected",
      "type": "event"
    },
    {
      "inputs": [],
      "name": "callbackGasLimit",
      "outputs": [
        {
          "internalType": "uint32",
          "name": "",
          "type": "uint32"
        }
      ],
      "stateMutability": "view",
      "type": "function"
    },
    {
      "inputs": [],
      "name": "ccipRouter",
      "outputs": [
        {
          "internalType": "address",
          "name": "",
          "type": "address"
        }
      ],
      "stateMutability": "view",
      "type": "function"
    },
    {
      "inputs": [],
      "name": "checkHealth",
      "outputs": [
        {
          "internalType": "bool",
          "name": "",
          "type": "bool"
        }
      ],
      "stateMutability": "view",
      "type": "function"
    },
    {
      "inputs": [
        {
          "internalType": "bytes",
          "name": "",
          "type": "bytes"
        }
      ],
      "name": "checkUpkeep",
      "outputs": [
        {
          "internalType": "bool",
          "name": "upkeepNeeded",
          "type": "bool"
        },
        {
          "internalType": "bytes",
          "name": "performData",
          "type": "bytes"
        }
      ],
      "stateMutability": "view",
      "type": "function"
    },
    {
      "inputs": [],
      "name": "getLatestETHPrice",
      "outputs": [
        {
          "internalType": "int256",
          "name": "",
          "type": "int256"
        }
      ],
      "stateMutability": "view",
      "type": "function"
    },
    {
      "inputs": [],
      "name": "keyHash",
      "outputs": [
        {
          "internalType": "bytes32",
          "name": "",
          "type": "bytes32"
        }
      ],
      "stateMutability": "view",
      "type": "function"
    },
    {
      "inputs": [
        {
          "internalType": "uint256",
          "name": "_loanId",
          "type": "uint256"
        }
      ],
      "name": "liquidateLoan",
      "outputs": [],
      "stateMutability": "nonpayable",
      "type": "function"
    },
    {
      "inputs": [],
      "name": "loanId",
      "outputs": [
        {
          "internalType": "uint256",
          "name": "",
          "type": "uint256"
        }
      ],
      "stateMutability": "view",
      "type": "function"
    },
    {
      "inputs": [
        {
          "internalType": "uint256",
          "name": "",
          "type": "uint256"
        }
      ],
      "name": "loans",
      "outputs": [
        {
          "internalType": "address",
          "name": "borrower",
          "type": "address"
        },
        {
          "internalType": "uint256",
          "name": "amount",
          "type": "uint256"
        },
        {
          "internalType": "bool",
          "name": "repaid",
          "type": "bool"
        },
        {
          "internalType": "uint8",
          "name": "riskTier",
          "type": "uint8"
        }
      ],
      "stateMutability": "view",
      "type": "function"
    },
    {
      "inputs": [],
      "name": "numWords",
      "outputs": [
        {
          "internalType": "uint32",
          "name": "",
          "type": "uint32"
        }
      ],
      "stateMutability": "view",
      "type": "function"
    },
    {
      "inputs": [
        {
          "internalType": "bytes",
          "name": "performData",
          "type": "bytes"
        }
      ],
      "name": "performUpkeep",
      "outputs": [],
      "stateMutability": "nonpayable",
      "type": "function"
    },
    {
      "inputs": [
        {
          "internalType": "uint256",
          "name": "requestId",
          "type": "uint256"
        },
        {
          "internalType": "uint256[]",
          "name": "randomWords",
          "type": "uint256[]"
        }
      ],
      "name": "rawFulfillRandomWords",
      "outputs": [],
      "stateMutability": "nonpayable",
      "type": "function"
    },
    {
      "inputs": [
        {
          "internalType": "string",
          "name": "data",
          "type": "string"
        }
      ],
      "name": "receiveCrossChainMessage",
      "outputs": [],
      "stateMutability": "nonpayable",
      "type": "function"
    },
    {
      "inputs": [
        {
          "internalType": "uint256",
          "name": "assetId",
          "type": "uint256"
        },
        {
          "internalType": "uint256",
          "name": "amount",
          "type": "uint256"
        }
      ],
      "name": "receiveLoanApproval",
      "outputs": [],
      "stateMutability": "nonpayable",
      "type": "function"
    },
    {
      "inputs": [],
      "name": "requestAudit",
      "outputs": [],
      "stateMutability": "nonpayable",
      "type": "function"
    },
    {
      "inputs": [],
      "name": "requestConfirmations",
      "outputs": [
        {
          "internalType": "uint16",
          "name": "",
          "type": "uint16"
        }
      ],
      "stateMutability": "view",
      "type": "function"
    },
    {
      "inputs": [],
      "name": "riskManager",
      "outputs": [
        {
          "internalType": "contract IAIRiskManager",
          "name": "",
          "type": "address"
        }
      ],
      "stateMutability": "view",
      "type": "function"
    },
    {
      "inputs": [],
      "name": "subscriptionId",
      "outputs": [
        {
          "internalType": "uint64",
          "name": "",
          "type": "uint64"
        }
      ],
      "stateMutability": "view",
      "type": "function"
    }
  ],
  "bytecode": "0x60a0604052620186a0600560086101000a81548163ffffffff021916908363ffffffff16021790555060036005600c6101000a81548161ffff021916908361ffff16021790555060016005600e6101000a81548163ffffffff021916908363ffffffff1602179055503480156200007557600080fd5b5060405162001e6d38038062001e6d83398181016040528101906200009b9190620002fa565b828073ffffffffffffffffffffffffffffffffffffffff1660808173ffffffffffffffffffffffffffffffffffffffff168152505050856000806101000a81548173ffffffffffffffffffffffffffffffffffffffff021916908373ffffffffffffffffffffffffffffffffffffffff16021790555084600160006101000a81548173ffffffffffffffffffffffffffffffffffffffff021916908373ffffffffffffffffffffffffffffffffffffffff16021790555083600260006101000a81548173ffffffffffffffffffffffffffffffffffffffff021916908373ffffffffffffffffffffffffffffffffffffffff16021790555082600360006101000a81548173ffffffffffffffffffffffffffffffffffffffff021916908373ffffffffffffffffffffffffffffffffffffffff1602179055508160048190555080600560006101000a81548167ffffffffffffffff021916908367ffffffffffffffff16021790555050505050505062000396565b600080fd5b600073ffffffffffffffffffffffffffffffffffffffff82169050919050565b6000620002428262000215565b9050919050565b620002548162000235565b81146200026057600080fd5b50565b600081519050620002748162000249565b92915050565b6000819050919050565b6200028f816200027a565b81146200029b57600080fd5b50565b600081519050620002af8162000284565b92915050565b600067ffffffffffffffff82169050919050565b620002d481620002b5565b8114620002e057600080fd5b50565b600081519050620002f481620002c9565b92915050565b60008060008060008060c087890312156200031a576200031962000210565b5b60006200032a89828a0162000263565b96505060206200033d89828a0162000263565b95505060406200035089828a0162000263565b94505060606200036389828a0162000263565b93505060806200037689828a016200029e565b92505060a06200038989828a01620002e3565b9150509295509295509295565b608051611ab4620003b96000396000818161038c01526103e00152611ab46000f3fe608060405234801561001057600080fd5b50600436106101165760003560e01c80636e04ff0d116100a2578063b0fb162f11610071578063b0fb162f1461029a578063c95669a5146102b8578063ccdd9f5d146102d6578063e1ec3c68146102f2578063e86490e21461032557610116565b80636e04ff0d14610211578063777e0d86146102425780637ccfd7fc1461026057806386fcdc191461027e57610116565b806324f74697116100e957806324f74697146101915780632bdf0038146101af5780634585e33b146101b957806347842663146101d557806361728f39146101f357610116565b806309c1ba2e1461011b5780630de22984146101395780631753bbd7146101575780631fe543e314610175575b600080fd5b610123610341565b6040516101309190610ddd565b60405180910390f35b61014161035b565b60405161014e9190610e39565b60405180910390f35b61015f610381565b60405161016c9190610e6f565b60405180910390f35b61018f600480360381019061018a919061102d565b61038a565b005b61019961044a565b6040516101a691906110a8565b60405180910390f35b6101b7610460565b005b6101d360048036038101906101ce919061111e565b61059a565b005b6101dd6105bb565b6040516101ea91906111ca565b60405180910390f35b6101fb6105e1565b60405161020891906111fe565b60405180910390f35b61022b6004803603810190610226919061111e565b6105e7565b604051610239929190611298565b60405180910390f35b61024a610746565b60405161025791906112e1565b60405180910390f35b6102686107e5565b60405161027591906110a8565b60405180910390f35b610298600480360381019061029391906112fc565b6107fb565b005b6102a261092b565b6040516102af9190611359565b60405180910390f35b6102c061093f565b6040516102cd9190611383565b60405180910390f35b6102f060048036038101906102eb919061139e565b610945565b005b61030c6004803603810190610307919061139e565b610a12565b60405161031c94939291906113e7565b60405180910390f35b61033f600480360381019061033a9190611482565b610a7c565b005b600560009054906101000a900467ffffffffffffffff1681565b600260009054906101000a900473ffffffffffffffffffffffffffffffffffffffff1681565b60006001905090565b7f000000000000000000000000000000000000000000000000000000000000000073ffffffffffffffffffffffffffffffffffffffff163373ffffffffffffffffffffffffffffffffffffffff161461043c57337f00000000000000000000000000000000000000000000000000000000000000006040517f1cf993f40000000000000000000000000000000000000000000000000000000081526004016104339291906114cf565b60405180910390fd5b6104468282610b10565b5050565b600560089054906101000a900463ffffffff1681565b6000600754116104a5576040517f08c379a000000000000000000000000000000000000000000000000000000000815260040161049c90611555565b60405180910390fd5b600360009054906101000a900473ffffffffffffffffffffffffffffffffffffffff1673ffffffffffffffffffffffffffffffffffffffff16635d3b1d30600454600560009054906101000a900467ffffffffffffffff166005600c9054906101000a900461ffff16600560089054906101000a900463ffffffff166005600e9054906101000a900463ffffffff166040518663ffffffff1660e01b8152600401610554959493929190611575565b6020604051808303816000875af1158015610573573d6000803e3d6000fd5b505050506040513d601f19601f8201168201806040525081019061059791906115dd565b50565b600082828101906105ab919061139e565b90506105b681610945565b505050565b600160009054906101000a900473ffffffffffffffffffffffffffffffffffffffff1681565b60045481565b6000606060005b600754811015610727576006600082815260200190815260200160002060020160009054906101000a900460ff161580156106e357506106e2600660008381526020019081526020016000206040518060800160405290816000820160009054906101000a900473ffffffffffffffffffffffffffffffffffffffff1673ffffffffffffffffffffffffffffffffffffffff1673ffffffffffffffffffffffffffffffffffffffff168152602001600182015481526020016002820160009054906101000a900460ff161515151581526020016002820160019054906101000a900460ff1660ff1660ff1681525050610b79565b5b15610714576001816040516020016106fb9190611383565b604051602081830303815290604052925092505061073f565b808061071f90611639565b9150506105ee565b50600060405180602001604052806000815250915091505b9250929050565b60008060008054906101000a900473ffffffffffffffffffffffffffffffffffffffff1673ffffffffffffffffffffffffffffffffffffffff1663feaf968c6040518163ffffffff1660e01b815260040160a060405180830381865afa1580156107b4573d6000803e3d6000fd5b505050506040513d601f19601f820116820180604052508101906107d891906116ef565b5050509150508091505090565b6005600e9054906101000a900463ffffffff1681565b6000600160009054906101000a900473ffffffffffffffffffffffffffffffffffffffff1673ffffffffffffffffffffffffffffffffffffffff1663dc08706d336040518263ffffffff1660e01b81526004016108589190610e39565b602060405180830381865afa158015610875573d6000803e3d6000fd5b505050506040513d601f19601f820116820180604052508101906108999190611796565b905060028160ff1610156108e2576040517f08c379a00000000000000000000000000000000000000000000000000000000081526004016108d99061180f565b60405180910390fd5b6108eb82610b91565b7f3c227ef12195f88b4263ee086a2732948a4e23244a4277294b8c9b177d56aa5b83833360405161091e9392919061182f565b60405180910390a1505050565b6005600c9054906101000a900461ffff1681565b60075481565b6006600082815260200190815260200160002060020160009054906101000a900460ff16156109a9576040517f08c379a00000000000000000000000000000000000000000000000000000000081526004016109a0906118b2565b60405180910390fd5b60016006600083815260200190815260200160002060020160006101000a81548160ff0219169083151502179055507faf91ffe368225045d42f7c2b4b90feb438133ac1e375e73bc9066652b70a1d7781604051610a079190611383565b60405180910390a150565b60066020528060005260406000206000915090508060000160009054906101000a900473ffffffffffffffffffffffffffffffffffffffff16908060010154908060020160009054906101000a900460ff16908060020160019054906101000a900460ff16905084565b600260009054906101000a900473ffffffffffffffffffffffffffffffffffffffff1673ffffffffffffffffffffffffffffffffffffffff163373ffffffffffffffffffffffffffffffffffffffff1614610b0c576040517f08c379a0000000000000000000000000000000000000000000000000000000008152600401610b039061191e565b60405180910390fd5b5050565b600060075482600081518110610b2957610b2861193e565b5b6020026020010151610b3b919061199c565b90507fb46fced3a6df62223b1457dd73f5a2b175fcaa90e8b757f5ef3dcb74d679464581604051610b6c9190611383565b60405180910390a1505050565b6000670de0b6b3a76400008260200151119050919050565b6000600160009054906101000a900473ffffffffffffffffffffffffffffffffffffffff1673ffffffffffffffffffffffffffffffffffffffff1663dc08706d336040518263ffffffff1660e01b8152600401610bee9190610e39565b602060405180830381865afa158015610c0b573d6000803e3d6000fd5b505050506040513d601f19601f82011682018060405250810190610c2f9190611796565b905060028160ff161015610c78576040517f08c379a0000000000000000000000000000000000000000000000000000000008152600401610c6f90611a19565b60405180910390fd5b60405180608001604052803373ffffffffffffffffffffffffffffffffffffffff1681526020018381526020016000151581526020018260ff1681525060066000600754815260200190815260200160002060008201518160000160006101000a81548173ffffffffffffffffffffffffffffffffffffffff021916908373ffffffffffffffffffffffffffffffffffffffff1602179055506020820151816001015560408201518160020160006101000a81548160ff02191690831515021790555060608201518160020160016101000a81548160ff021916908360ff1602179055509050507f2a2a0e30be66d7708fcc027c3528f84a6e08918887209091c74bec2387cb0c2e338360075484604051610d969493929190611a39565b60405180910390a160076000815480929190610db190611639565b91905055505050565b600067ffffffffffffffff82169050919050565b610dd781610dba565b82525050565b6000602082019050610df26000830184610dce565b92915050565b600073ffffffffffffffffffffffffffffffffffffffff82169050919050565b6000610e2382610df8565b9050919050565b610e3381610e18565b82525050565b6000602082019050610e4e6000830184610e2a565b92915050565b60008115159050919050565b610e6981610e54565b82525050565b6000602082019050610e846000830184610e60565b92915050565b6000604051905090565b600080fd5b600080fd5b6000819050919050565b610eb181610e9e565b8114610ebc57600080fd5b50565b600081359050610ece81610ea8565b92915050565b600080fd5b6000601f19601f8301169050919050565b7f4e487b7100000000000000000000000000000000000000000000000000000000600052604160045260246000fd5b610f2282610ed9565b810181811067ffffffffffffffff82111715610f4157610f40610eea565b5b80604052505050565b6000610f54610e8a565b9050610f608282610f19565b919050565b600067ffffffffffffffff821115610f8057610f7f610eea565b5b602082029050602081019050919050565b600080fd5b6000610fa9610fa484610f65565b610f4a565b90508083825260208201905060208402830185811115610fcc57610fcb610f91565b5b835b81811015610ff55780610fe18882610ebf565b845260208401935050602081019050610fce565b5050509392505050565b600082601f83011261101457611013610ed4565b5b8135611024848260208601610f96565b91505092915050565b6000806040838503121561104457611043610e94565b5b600061105285828601610ebf565b925050602083013567ffffffffffffffff81111561107357611072610e99565b5b61107f85828601610fff565b9150509250929050565b600063ffffffff82169050919050565b6110a281611089565b82525050565b60006020820190506110bd6000830184611099565b92915050565b600080fd5b60008083601f8401126110de576110dd610ed4565b5b8235905067ffffffffffffffff8111156110fb576110fa6110c3565b5b60208301915083600182028301111561111757611116610f91565b5b9250929050565b6000806020838503121561113557611134610e94565b5b600083013567ffffffffffffffff81111561115357611152610e99565b5b61115f858286016110c8565b92509250509250929050565b6000819050919050565b600061119061118b61118684610df8565b61116b565b610df8565b9050919050565b60006111a282611175565b9050919050565b60006111b482611197565b9050919050565b6111c4816111a9565b82525050565b60006020820190506111df60008301846111bb565b92915050565b6000819050919050565b6111f8816111e5565b82525050565b600060208201905061121360008301846111ef565b92915050565b600081519050919050565b600082825260208201905092915050565b60005b83811015611253578082015181840152602081019050611238565b60008484015250505050565b600061126a82611219565b6112748185611224565b9350611284818560208601611235565b61128d81610ed9565b840191505092915050565b60006040820190506112ad6000830185610e60565b81810360208301526112bf818461125f565b90509392505050565b6000819050919050565b6112db816112c8565b82525050565b60006020820190506112f660008301846112d2565b92915050565b6000806040838503121561131357611312610e94565b5b600061132185828601610ebf565b925050602061133285828601610ebf565b9150509250929050565b600061ffff82169050919050565b6113538161133c565b82525050565b600060208201905061136e600083018461134a565b92915050565b61137d81610e9e565b82525050565b60006020820190506113986000830184611374565b92915050565b6000602082840312156113b4576113b3610e94565b5b60006113c284828501610ebf565b91505092915050565b600060ff82169050919050565b6113e1816113cb565b82525050565b60006080820190506113fc6000830187610e2a565b6114096020830186611374565b6114166040830185610e60565b61142360608301846113d8565b95945050505050565b60008083601f84011261144257611441610ed4565b5b8235905067ffffffffffffffff81111561145f5761145e6110c3565b5b60208301915083600182028301111561147b5761147a610f91565b5b9250929050565b6000806020838503121561149957611498610e94565b5b600083013567ffffffffffffffff8111156114b7576114b6610e99565b5b6114c38582860161142c565b92509250509250929050565b60006040820190506114e46000830185610e2a565b6114f16020830184610e2a565b9392505050565b600082825260208201905092915050565b7f4e6f206c6f616e73206578697374000000000000000000000000000000000000600082015250565b600061153f600e836114f8565b915061154a82611509565b602082019050919050565b6000602082019050818103600083015261156e81611532565b9050919050565b600060a08201905061158a60008301886111ef565b6115976020830187610dce565b6115a4604083018661134a565b6115b16060830185611099565b6115be6080830184611099565b9695505050505050565b6000815190506115d781610ea8565b92915050565b6000602082840312156115f3576115f2610e94565b5b6000611601848285016115c8565b91505092915050565b7f4e487b7100000000000000000000000000000000000000000000000000000000600052601160045260246000fd5b600061164482610e9e565b91507fffffffffffffffffffffffffffffffffffffffffffffffffffffffffffffffff82036116765761167561160a565b5b600182019050919050565b600069ffffffffffffffffffff82169050919050565b6116a081611681565b81146116ab57600080fd5b50565b6000815190506116bd81611697565b92915050565b6116cc816112c8565b81146116d757600080fd5b50565b6000815190506116e9816116c3565b92915050565b600080600080600060a0868803121561170b5761170a610e94565b5b6000611719888289016116ae565b955050602061172a888289016116da565b945050604061173b888289016115c8565b935050606061174c888289016115c8565b925050608061175d888289016116ae565b9150509295509295909350565b611773816113cb565b811461177e57600080fd5b50565b6000815190506117908161176a565b92915050565b6000602082840312156117ac576117ab610e94565b5b60006117ba84828501611781565b91505092915050565b7f5269736b20746f6f20686967682028617070726f76616c290000000000000000600082015250565b60006117f96018836114f8565b9150611804826117c3565b602082019050919050565b60006020820190508181036000830152611828816117ec565b9050919050565b60006060820190506118446000830186611374565b6118516020830185611374565b61185e6040830184610e2a565b949350505050565b7f416c726561647920726570616964000000000000000000000000000000000000600082015250565b600061189c600e836114f8565b91506118a782611866565b602082019050919050565b600060208201905081810360008301526118cb8161188f565b9050919050565b7f4f6e6c792043434950526f757465720000000000000000000000000000000000600082015250565b6000611908600f836114f8565b9150611913826118d2565b602082019050919050565b60006020820190508181036000830152611937816118fb565b9050919050565b7f4e487b7100000000000000000000000000000000000000000000000000000000600052603260045260246000fd5b7f4e487b7100000000000000000000000000000000000000000000000000000000600052601260045260246000fd5b60006119a782610e9e565b91506119b283610e9e565b9250826119c2576119c161196d565b5b828206905092915050565b7f5269736b20746f6f206869676800000000000000000000000000000000000000600082015250565b6000611a03600d836114f8565b9150611a0e826119cd565b602082019050919050565b60006020820190508181036000830152611a32816119f6565b9050919050565b6000608082019050611a4e6000830187610e2a565b611a5b6020830186611374565b611a686040830185611374565b611a7560608301846113d8565b9594505050505056fea26469706673582212208f56a2ae33e1f08bc9125984254b34f7f64e3e161c85b85b1cb7c7479418594d64736f6c63430008140033",
  "linkReferences": {},
  "deployedLinkReferences": {}
}