{
  "_format": "hh-sol-artifact-1",
  "contractName": "VaultCore",
  "sourceName": "contracts/VaultCore.sol",
  "abi": [
    {
      "inputs": [
        {
          "internalType": "address",
          "name": "_priceFeed",
          "type": "address"
        },
        {
          "internalType": "address",
          "name": "_riskManager",
          "type": "address"
        },
        {
          "internalType": "address",
          "name": "_ccipRouter",
          "type": "address"
        }
      ],
      "stateMutability": "nonpayable",
      "type": "constructor"
    },
    {
      "anonymous": false,
      "inputs": [
        {
          "indexed": false,
          "internalType": "uint256",
          "name": "assetId",
          "type": "uint256"
        },
        {
          "indexed": false,
          "internalType": "uint256",
          "name": "amount",
          "type": "uint256"
        },
        {
          "indexed": false,
          "internalType": "address",
          "name": "borrower",
          "type": "address"
        }
      ],
      "name": "CrossChainLoanApproval",
      "type": "event"
    },
    {
      "anonymous": false,
      "inputs": [
        {
          "indexed": false,
          "internalType": "address",
          "name": "borrower",
          "type": "address"
        },
        {
          "indexed": false,
          "internalType": "uint256",
          "name": "amount",
          "type": "uint256"
        },
        {
          "indexed": false,
          "internalType": "uint256",
          "name": "loanId",
          "type": "uint256"
        },
        {
          "indexed": false,
          "internalType": "uint8",
          "name": "riskTier",
          "type": "uint8"
        }
      ],
      "name": "LoanIssued",
      "type": "event"
    },
    {
      "anonymous": false,
      "inputs": [
        {
          "indexed": false,
          "internalType": "uint256",
          "name": "loanId",
          "type": "uint256"
        }
      ],
      "name": "LoanLiquidated",
      "type": "event"
    },
    {
      "inputs": [],
      "name": "ccipRouter",
      "outputs": [
        {
          "internalType": "address",
          "name": "",
          "type": "address"
        }
      ],
      "stateMutability": "view",
      "type": "function"
    },
    {
      "inputs": [],
      "name": "checkHealth",
      "outputs": [
        {
          "internalType": "bool",
          "name": "",
          "type": "bool"
        }
      ],
      "stateMutability": "view",
      "type": "function"
    },
    {
      "inputs": [
        {
          "internalType": "bytes",
          "name": "",
          "type": "bytes"
        }
      ],
      "name": "checkUpkeep",
      "outputs": [
        {
          "internalType": "bool",
          "name": "upkeepNeeded",
          "type": "bool"
        },
        {
          "internalType": "bytes",
          "name": "performData",
          "type": "bytes"
        }
      ],
      "stateMutability": "view",
      "type": "function"
    },
    {
      "inputs": [],
      "name": "getLatestETHPrice",
      "outputs": [
        {
          "internalType": "int256",
          "name": "",
          "type": "int256"
        }
      ],
      "stateMutability": "view",
      "type": "function"
    },
    {
      "inputs": [
        {
          "internalType": "uint256",
          "name": "_loanId",
          "type": "uint256"
        }
      ],
      "name": "liquidateLoan",
      "outputs": [],
      "stateMutability": "nonpayable",
      "type": "function"
    },
    {
      "inputs": [],
      "name": "loanId",
      "outputs": [
        {
          "internalType": "uint256",
          "name": "",
          "type": "uint256"
        }
      ],
      "stateMutability": "view",
      "type": "function"
    },
    {
      "inputs": [
        {
          "internalType": "uint256",
          "name": "",
          "type": "uint256"
        }
      ],
      "name": "loans",
      "outputs": [
        {
          "internalType": "address",
          "name": "borrower",
          "type": "address"
        },
        {
          "internalType": "uint256",
          "name": "amount",
          "type": "uint256"
        },
        {
          "internalType": "bool",
          "name": "repaid",
          "type": "bool"
        },
        {
          "internalType": "uint8",
          "name": "riskTier",
          "type": "uint8"
        }
      ],
      "stateMutability": "view",
      "type": "function"
    },
    {
      "inputs": [
        {
          "internalType": "bytes",
          "name": "performData",
          "type": "bytes"
        }
      ],
      "name": "performUpkeep",
      "outputs": [],
      "stateMutability": "nonpayable",
      "type": "function"
    },
    {
      "inputs": [
        {
          "internalType": "string",
          "name": "data",
          "type": "string"
        }
      ],
      "name": "receiveCrossChainMessage",
      "outputs": [],
      "stateMutability": "nonpayable",
      "type": "function"
    },
    {
      "inputs": [
        {
          "internalType": "uint256",
          "name": "assetId",
          "type": "uint256"
        },
        {
          "internalType": "uint256",
          "name": "amount",
          "type": "uint256"
        }
      ],
      "name": "receiveLoanApproval",
      "outputs": [],
      "stateMutability": "nonpayable",
      "type": "function"
    },
    {
      "inputs": [],
      "name": "riskManager",
      "outputs": [
        {
          "internalType": "contract IAIRiskManager",
          "name": "",
          "type": "address"
        }
      ],
      "stateMutability": "view",
      "type": "function"
    }
  ],
  "bytecode": "0x60806040523480156200001157600080fd5b50604051620013203803806200132083398181016040528101906200003791906200016c565b826000806101000a81548173ffffffffffffffffffffffffffffffffffffffff021916908373ffffffffffffffffffffffffffffffffffffffff16021790555081600160006101000a81548173ffffffffffffffffffffffffffffffffffffffff021916908373ffffffffffffffffffffffffffffffffffffffff16021790555080600260006101000a81548173ffffffffffffffffffffffffffffffffffffffff021916908373ffffffffffffffffffffffffffffffffffffffff160217905550505050620001c8565b600080fd5b600073ffffffffffffffffffffffffffffffffffffffff82169050919050565b6000620001348262000107565b9050919050565b620001468162000127565b81146200015257600080fd5b50565b60008151905062000166816200013b565b92915050565b60008060006060848603121562000188576200018762000102565b5b6000620001988682870162000155565b9350506020620001ab8682870162000155565b9250506040620001be8682870162000155565b9150509250925092565b61114880620001d86000396000f3fe608060405234801561001057600080fd5b50600436106100a95760003560e01c8063777e0d8611610071578063777e0d861461015557806386fcdc1914610173578063c95669a51461018f578063ccdd9f5d146101ad578063e1ec3c68146101c9578063e86490e2146101fc576100a9565b80630de22984146100ae5780631753bbd7146100cc5780634585e33b146100ea57806347842663146101065780636e04ff0d14610124575b600080fd5b6100b6610218565b6040516100c39190610927565b60405180910390f35b6100d461023e565b6040516100e1919061095d565b60405180910390f35b61010460048036038101906100ff91906109e7565b610247565b005b61010e610268565b60405161011b9190610a93565b60405180910390f35b61013e600480360381019061013991906109e7565b61028e565b60405161014c929190610b3e565b60405180910390f35b61015d6103ed565b60405161016a9190610b87565b60405180910390f35b61018d60048036038101906101889190610bd8565b61048c565b005b6101976104d4565b6040516101a49190610c27565b60405180910390f35b6101c760048036038101906101c29190610c42565b6104da565b005b6101e360048036038101906101de9190610c42565b6105a7565b6040516101f39493929190610c8b565b60405180910390f35b61021660048036038101906102119190610d26565b610611565b005b600260009054906101000a900473ffffffffffffffffffffffffffffffffffffffff1681565b60006001905090565b600082828101906102589190610c42565b9050610263816104da565b505050565b600160009054906101000a900473ffffffffffffffffffffffffffffffffffffffff1681565b6000606060005b6004548110156103ce576003600082815260200190815260200160002060020160009054906101000a900460ff1615801561038a5750610389600360008381526020019081526020016000206040518060800160405290816000820160009054906101000a900473ffffffffffffffffffffffffffffffffffffffff1673ffffffffffffffffffffffffffffffffffffffff1673ffffffffffffffffffffffffffffffffffffffff168152602001600182015481526020016002820160009054906101000a900460ff161515151581526020016002820160019054906101000a900460ff1660ff1660ff16815250506106a5565b5b156103bb576001816040516020016103a29190610c27565b60405160208183030381529060405292509250506103e6565b80806103c690610da2565b915050610295565b50600060405180602001604052806000815250915091505b9250929050565b60008060008054906101000a900473ffffffffffffffffffffffffffffffffffffffff1673ffffffffffffffffffffffffffffffffffffffff1663feaf968c6040518163ffffffff1660e01b815260040160a060405180830381865afa15801561045b573d6000803e3d6000fd5b505050506040513d601f19601f8201168201806040525081019061047f9190610e6d565b5050509150508091505090565b610495816106bd565b7f3c227ef12195f88b4263ee086a2732948a4e23244a4277294b8c9b177d56aa5b8282336040516104c893929190610ee8565b60405180910390a15050565b60045481565b6003600082815260200190815260200160002060020160009054906101000a900460ff161561053e576040517f08c379a000000000000000000000000000000000000000000000000000000000815260040161053590610f7c565b60405180910390fd5b60016003600083815260200190815260200160002060020160006101000a81548160ff0219169083151502179055507faf91ffe368225045d42f7c2b4b90feb438133ac1e375e73bc9066652b70a1d778160405161059c9190610c27565b60405180910390a150565b60036020528060005260406000206000915090508060000160009054906101000a900473ffffffffffffffffffffffffffffffffffffffff16908060010154908060020160009054906101000a900460ff16908060020160019054906101000a900460ff16905084565b600260009054906101000a900473ffffffffffffffffffffffffffffffffffffffff1673ffffffffffffffffffffffffffffffffffffffff163373ffffffffffffffffffffffffffffffffffffffff16146106a1576040517f08c379a000000000000000000000000000000000000000000000000000000000815260040161069890610fe8565b60405180910390fd5b5050565b6000670de0b6b3a76400008260200151119050919050565b6000600160009054906101000a900473ffffffffffffffffffffffffffffffffffffffff1673ffffffffffffffffffffffffffffffffffffffff1663dc08706d336040518263ffffffff1660e01b815260040161071a9190610927565b602060405180830381865afa158015610737573d6000803e3d6000fd5b505050506040513d601f19601f8201168201806040525081019061075b9190611034565b905060028160ff1610156107a4576040517f08c379a000000000000000000000000000000000000000000000000000000000815260040161079b906110ad565b60405180910390fd5b60405180608001604052803373ffffffffffffffffffffffffffffffffffffffff1681526020018381526020016000151581526020018260ff1681525060036000600454815260200190815260200160002060008201518160000160006101000a81548173ffffffffffffffffffffffffffffffffffffffff021916908373ffffffffffffffffffffffffffffffffffffffff1602179055506020820151816001015560408201518160020160006101000a81548160ff02191690831515021790555060608201518160020160016101000a81548160ff021916908360ff1602179055509050507f2a2a0e30be66d7708fcc027c3528f84a6e08918887209091c74bec2387cb0c2e3383600454846040516108c294939291906110cd565b60405180910390a1600460008154809291906108dd90610da2565b91905055505050565b600073ffffffffffffffffffffffffffffffffffffffff82169050919050565b6000610911826108e6565b9050919050565b61092181610906565b82525050565b600060208201905061093c6000830184610918565b92915050565b60008115159050919050565b61095781610942565b82525050565b6000602082019050610972600083018461094e565b92915050565b600080fd5b600080fd5b600080fd5b600080fd5b600080fd5b60008083601f8401126109a7576109a6610982565b5b8235905067ffffffffffffffff8111156109c4576109c3610987565b5b6020830191508360018202830111156109e0576109df61098c565b5b9250929050565b600080602083850312156109fe576109fd610978565b5b600083013567ffffffffffffffff811115610a1c57610a1b61097d565b5b610a2885828601610991565b92509250509250929050565b6000819050919050565b6000610a59610a54610a4f846108e6565b610a34565b6108e6565b9050919050565b6000610a6b82610a3e565b9050919050565b6000610a7d82610a60565b9050919050565b610a8d81610a72565b82525050565b6000602082019050610aa86000830184610a84565b92915050565b600081519050919050565b600082825260208201905092915050565b60005b83811015610ae8578082015181840152602081019050610acd565b60008484015250505050565b6000601f19601f8301169050919050565b6000610b1082610aae565b610b1a8185610ab9565b9350610b2a818560208601610aca565b610b3381610af4565b840191505092915050565b6000604082019050610b53600083018561094e565b8181036020830152610b658184610b05565b90509392505050565b6000819050919050565b610b8181610b6e565b82525050565b6000602082019050610b9c6000830184610b78565b92915050565b6000819050919050565b610bb581610ba2565b8114610bc057600080fd5b50565b600081359050610bd281610bac565b92915050565b60008060408385031215610bef57610bee610978565b5b6000610bfd85828601610bc3565b9250506020610c0e85828601610bc3565b9150509250929050565b610c2181610ba2565b82525050565b6000602082019050610c3c6000830184610c18565b92915050565b600060208284031215610c5857610c57610978565b5b6000610c6684828501610bc3565b91505092915050565b600060ff82169050919050565b610c8581610c6f565b82525050565b6000608082019050610ca06000830187610918565b610cad6020830186610c18565b610cba604083018561094e565b610cc76060830184610c7c565b95945050505050565b60008083601f840112610ce657610ce5610982565b5b8235905067ffffffffffffffff811115610d0357610d02610987565b5b602083019150836001820283011115610d1f57610d1e61098c565b5b9250929050565b60008060208385031215610d3d57610d3c610978565b5b600083013567ffffffffffffffff811115610d5b57610d5a61097d565b5b610d6785828601610cd0565b92509250509250929050565b7f4e487b7100000000000000000000000000000000000000000000000000000000600052601160045260246000fd5b6000610dad82610ba2565b91507fffffffffffffffffffffffffffffffffffffffffffffffffffffffffffffffff8203610ddf57610dde610d73565b5b600182019050919050565b600069ffffffffffffffffffff82169050919050565b610e0981610dea565b8114610e1457600080fd5b50565b600081519050610e2681610e00565b92915050565b610e3581610b6e565b8114610e4057600080fd5b50565b600081519050610e5281610e2c565b92915050565b600081519050610e6781610bac565b92915050565b600080600080600060a08688031215610e8957610e88610978565b5b6000610e9788828901610e17565b9550506020610ea888828901610e43565b9450506040610eb988828901610e58565b9350506060610eca88828901610e58565b9250506080610edb88828901610e17565b9150509295509295909350565b6000606082019050610efd6000830186610c18565b610f0a6020830185610c18565b610f176040830184610918565b949350505050565b600082825260208201905092915050565b7f416c726561647920726570616964000000000000000000000000000000000000600082015250565b6000610f66600e83610f1f565b9150610f7182610f30565b602082019050919050565b60006020820190508181036000830152610f9581610f59565b9050919050565b7f4f6e6c792043434950526f757465720000000000000000000000000000000000600082015250565b6000610fd2600f83610f1f565b9150610fdd82610f9c565b602082019050919050565b6000602082019050818103600083015261100181610fc5565b9050919050565b61101181610c6f565b811461101c57600080fd5b50565b60008151905061102e81611008565b92915050565b60006020828403121561104a57611049610978565b5b60006110588482850161101f565b91505092915050565b7f5269736b20746f6f206869676800000000000000000000000000000000000000600082015250565b6000611097600d83610f1f565b91506110a282611061565b602082019050919050565b600060208201905081810360008301526110c68161108a565b9050919050565b60006080820190506110e26000830187610918565b6110ef6020830186610c18565b6110fc6040830185610c18565b6111096060830184610c7c565b9594505050505056fea2646970667358221220f67fc6f7cc941315ff8aea5acfb9ccb645d8e8efb1f5bff426e19cd61b973fdd64736f6c63430008140033",
  "linkReferences": {},
  "deployedLinkReferences": {}
}