{"contracts/CCIPRouter.sol":{"CCIPRouter":{"abi":[{"anonymous":false,"inputs":[{"indexed":false,"internalType":"address","name":"from","type":"address"},{"indexed":false,"internalType":"string","name":"data","type":"string"}],"name":"MessageReceived","type":"event"},{"anonymous":false,"inputs":[{"indexed":false,"internalType":"address","name":"to","type":"address"},{"indexed":false,"internalType":"string","name":"data","type":"string"}],"name":"MessageSent","type":"event"},{"inputs":[{"internalType":"string","name":"data","type":"string"}],"name":"receiveMessage","outputs":[],"stateMutability":"nonpayable","type":"function"},{"inputs":[{"internalType":"address","name":"to","type":"address"},{"internalType":"string","name":"data","type":"string"}],"name":"sendMessage","outputs":[],"stateMutability":"nonpayable","type":"function"}],"evm":{"bytecode":{"linkReferences":{},"object":"608060405234801561001057600080fd5b50610341806100206000396000f3fe608060405234801561001057600080fd5b50600436106100365760003560e01c80632f049bf31461003b578063de6f24bb14610057575b600080fd5b61005560048036038101906100509190610161565b610073565b005b610071600480360381019061006c919061020c565b6100b2565b005b7f15340f1d3815fc99b59e3b9ed010321f64951d6e6a43c97a9e92713e7cd6ad173383836040516100a6939291906102d9565b60405180910390a15050565b7f0d7fccda06d6eb51c23cbd16d49b9b3f3ebafb002dba1b074895cbb35d0e81308383836040516100e5939291906102d9565b60405180910390a1505050565b600080fd5b600080fd5b600080fd5b600080fd5b600080fd5b60008083601f840112610121576101206100fc565b5b8235905067ffffffffffffffff81111561013e5761013d610101565b5b60208301915083600182028301111561015a57610159610106565b5b9250929050565b60008060208385031215610178576101776100f2565b5b600083013567ffffffffffffffff811115610196576101956100f7565b5b6101a28582860161010b565b92509250509250929050565b600073ffffffffffffffffffffffffffffffffffffffff82169050919050565b60006101d9826101ae565b9050919050565b6101e9816101ce565b81146101f457600080fd5b50565b600081359050610206816101e0565b92915050565b600080600060408486031215610225576102246100f2565b5b6000610233868287016101f7565b935050602084013567ffffffffffffffff811115610254576102536100f7565b5b6102608682870161010b565b92509250509250925092565b610275816101ce565b82525050565b600082825260208201905092915050565b82818337600083830152505050565b6000601f19601f8301169050919050565b60006102b8838561027b565b93506102c583858461028c565b6102ce8361029b565b840190509392505050565b60006040820190506102ee600083018661026c565b81810360208301526103018184866102ac565b905094935050505056fea2646970667358221220f636c6d3588d243d8131d5a2d0a1b19227a1929efc4c676909f205da0b4e6ef764736f6c63430008140033","opcodes":"PUSH1 0x80 PUSH1 0x40 MSTORE CALLVALUE DUP1 ISZERO PUSH2 0x10 JUMPI PUSH1 0x0 DUP1 REVERT JUMPDEST POP PUSH2 0x341 DUP1 PUSH2 0x20 PUSH1 0x0 CODECOPY PUSH1 0x0 RETURN INVALID PUSH1 0x80 PUSH1 0x40 MSTORE CALLVALUE DUP1 ISZERO PUSH2 0x10 JUMPI PUSH1 0x0 DUP1 REVERT JUMPDEST POP PUSH1 0x4 CALLDATASIZE LT PUSH2 0x36 JUMPI PUSH1 0x0 CALLDATALOAD PUSH1 0xE0 SHR DUP1 PUSH4 0x2F049BF3 EQ PUSH2 0x3B JUMPI DUP1 PUSH4 0xDE6F24BB EQ PUSH2 0x57 JUMPI JUMPDEST PUSH1 0x0 DUP1 REVERT JUMPDEST PUSH2 0x55 PUSH1 0x4 DUP1 CALLDATASIZE SUB DUP2 ADD SWAP1 PUSH2 0x50 SWAP2 SWAP1 PUSH2 0x161 JUMP JUMPDEST PUSH2 0x73 JUMP JUMPDEST STOP JUMPDEST PUSH2 0x71 PUSH1 0x4 DUP1 CALLDATASIZE SUB DUP2 ADD SWAP1 PUSH2 0x6C SWAP2 SWAP1 PUSH2 0x20C JUMP JUMPDEST PUSH2 0xB2 JUMP JUMPDEST STOP JUMPDEST PUSH32 0x15340F1D3815FC99B59E3B9ED010321F64951D6E6A43C97A9E92713E7CD6AD17 CALLER DUP4 DUP4 PUSH1 0x40 MLOAD PUSH2 0xA6 SWAP4 SWAP3 SWAP2 SWAP1 PUSH2 0x2D9 JUMP JUMPDEST PUSH1 0x40 MLOAD DUP1 SWAP2 SUB SWAP1 LOG1 POP POP JUMP JUMPDEST PUSH32 0xD7FCCDA06D6EB51C23CBD16D49B9B3F3EBAFB002DBA1B074895CBB35D0E8130 DUP4 DUP4 DUP4 PUSH1 0x40 MLOAD PUSH2 0xE5 SWAP4 SWAP3 SWAP2 SWAP1 PUSH2 0x2D9 JUMP JUMPDEST PUSH1 0x40 MLOAD DUP1 SWAP2 SUB SWAP1 LOG1 POP POP POP JUMP JUMPDEST PUSH1 0x0 DUP1 REVERT JUMPDEST PUSH1 0x0 DUP1 REVERT JUMPDEST PUSH1 0x0 DUP1 REVERT JUMPDEST PUSH1 0x0 DUP1 REVERT JUMPDEST PUSH1 0x0 DUP1 REVERT JUMPDEST PUSH1 0x0 DUP1 DUP4 PUSH1 0x1F DUP5 ADD SLT PUSH2 0x121 JUMPI PUSH2 0x120 PUSH2 0xFC JUMP JUMPDEST JUMPDEST DUP3 CALLDATALOAD SWAP1 POP PUSH8 0xFFFFFFFFFFFFFFFF DUP2 GT ISZERO PUSH2 0x13E JUMPI PUSH2 0x13D PUSH2 0x101 JUMP JUMPDEST JUMPDEST PUSH1 0x20 DUP4 ADD SWAP2 POP DUP4 PUSH1 0x1 DUP3 MUL DUP4 ADD GT ISZERO PUSH2 0x15A JUMPI PUSH2 0x159 PUSH2 0x106 JUMP JUMPDEST JUMPDEST SWAP3 POP SWAP3 SWAP1 POP JUMP JUMPDEST PUSH1 0x0 DUP1 PUSH1 0x20 DUP4 DUP6 SUB SLT ISZERO PUSH2 0x178 JUMPI PUSH2 0x177 PUSH2 0xF2 JUMP JUMPDEST JUMPDEST PUSH1 0x0 DUP4 ADD CALLDATALOAD PUSH8 0xFFFFFFFFFFFFFFFF DUP2 GT ISZERO PUSH2 0x196 JUMPI PUSH2 0x195 PUSH2 0xF7 JUMP JUMPDEST JUMPDEST PUSH2 0x1A2 DUP6 DUP3 DUP7 ADD PUSH2 0x10B JUMP JUMPDEST SWAP3 POP SWAP3 POP POP SWAP3 POP SWAP3 SWAP1 POP JUMP JUMPDEST PUSH1 0x0 PUSH20 0xFFFFFFFFFFFFFFFFFFFFFFFFFFFFFFFFFFFFFFFF DUP3 AND SWAP1 POP SWAP2 SWAP1 POP JUMP JUMPDEST PUSH1 0x0 PUSH2 0x1D9 DUP3 PUSH2 0x1AE JUMP JUMPDEST SWAP1 POP SWAP2 SWAP1 POP JUMP JUMPDEST PUSH2 0x1E9 DUP2 PUSH2 0x1CE JUMP JUMPDEST DUP2 EQ PUSH2 0x1F4 JUMPI PUSH1 0x0 DUP1 REVERT JUMPDEST POP JUMP JUMPDEST PUSH1 0x0 DUP2 CALLDATALOAD SWAP1 POP PUSH2 0x206 DUP2 PUSH2 0x1E0 JUMP JUMPDEST SWAP3 SWAP2 POP POP JUMP JUMPDEST PUSH1 0x0 DUP1 PUSH1 0x0 PUSH1 0x40 DUP5 DUP7 SUB SLT ISZERO PUSH2 0x225 JUMPI PUSH2 0x224 PUSH2 0xF2 JUMP JUMPDEST JUMPDEST PUSH1 0x0 PUSH2 0x233 DUP7 DUP3 DUP8 ADD PUSH2 0x1F7 JUMP JUMPDEST SWAP4 POP POP PUSH1 0x20 DUP5 ADD CALLDATALOAD PUSH8 0xFFFFFFFFFFFFFFFF DUP2 GT ISZERO PUSH2 0x254 JUMPI PUSH2 0x253 PUSH2 0xF7 JUMP JUMPDEST JUMPDEST PUSH2 0x260 DUP7 DUP3 DUP8 ADD PUSH2 0x10B JUMP JUMPDEST SWAP3 POP SWAP3 POP POP SWAP3 POP SWAP3 POP SWAP3 JUMP JUMPDEST PUSH2 0x275 DUP2 PUSH2 0x1CE JUMP JUMPDEST DUP3 MSTORE POP POP JUMP JUMPDEST PUSH1 0x0 DUP3 DUP3 MSTORE PUSH1 0x20 DUP3 ADD SWAP1 POP SWAP3 SWAP2 POP POP JUMP JUMPDEST DUP3 DUP2 DUP4 CALLDATACOPY PUSH1 0x0 DUP4 DUP4 ADD MSTORE POP POP POP JUMP JUMPDEST PUSH1 0x0 PUSH1 0x1F NOT PUSH1 0x1F DUP4 ADD AND SWAP1 POP SWAP2 SWAP1 POP JUMP JUMPDEST PUSH1 0x0 PUSH2 0x2B8 DUP4 DUP6 PUSH2 0x27B JUMP JUMPDEST SWAP4 POP PUSH2 0x2C5 DUP4 DUP6 DUP5 PUSH2 0x28C JUMP JUMPDEST PUSH2 0x2CE DUP4 PUSH2 0x29B JUMP JUMPDEST DUP5 ADD SWAP1 POP SWAP4 SWAP3 POP POP POP JUMP JUMPDEST PUSH1 0x0 PUSH1 0x40 DUP3 ADD SWAP1 POP PUSH2 0x2EE PUSH1 0x0 DUP4 ADD DUP7 PUSH2 0x26C JUMP JUMPDEST DUP2 DUP2 SUB PUSH1 0x20 DUP4 ADD MSTORE PUSH2 0x301 DUP2 DUP5 DUP7 PUSH2 0x2AC JUMP JUMPDEST SWAP1 POP SWAP5 SWAP4 POP POP POP POP JUMP INVALID LOG2 PUSH5 0x6970667358 0x22 SLT KECCAK256 0xF6 CALLDATASIZE 0xC6 0xD3 PC DUP14 0x24 RETURNDATASIZE DUP2 BALANCE 0xD5 LOG2 0xD0 LOG1 0xB1 SWAP3 0x27 LOG1 SWAP3 SWAP15 0xFC 0x4C PUSH8 0x6909F205DA0B4E6E 0xF7 PUSH5 0x736F6C6343 STOP ADDMOD EQ STOP CALLER "},"methodIdentifiers":{"receiveMessage(string)":"2f049bf3","sendMessage(address,string)":"de6f24bb"}}}}}