{"contracts/VaultCore.sol":{"VaultCore":{"abi":[{"inputs":[{"internalType":"address","name":"_priceFeed","type":"address"},{"internalType":"address","name":"_riskManager","type":"address"},{"internalType":"address","name":"_ccipRouter","type":"address"},{"internalType":"address","name":"_vrfCoordinator","type":"address"},{"internalType":"bytes32","name":"_keyHash","type":"bytes32"},{"internalType":"uint64","name":"_subscriptionId","type":"uint64"}],"stateMutability":"nonpayable","type":"constructor"},{"inputs":[{"internalType":"address","name":"have","type":"address"},{"internalType":"address","name":"want","type":"address"}],"name":"OnlyCoordinatorCanFulfill","type":"error"},{"anonymous":false,"inputs":[{"indexed":false,"internalType":"uint256","name":"assetId","type":"uint256"},{"indexed":false,"internalType":"uint256","name":"amount","type":"uint256"},{"indexed":false,"internalType":"address","name":"borrower","type":"address"}],"name":"CrossChainLoanApproval","type":"event"},{"anonymous":false,"inputs":[{"indexed":false,"internalType":"address","name":"borrower","type":"address"},{"indexed":false,"internalType":"uint256","name":"amount","type":"uint256"},{"indexed":false,"internalType":"uint256","name":"loanId","type":"uint256"},{"indexed":false,"internalType":"uint8","name":"riskTier","type":"uint8"}],"name":"LoanIssued","type":"event"},{"anonymous":false,"inputs":[{"indexed":false,"internalType":"uint256","name":"loanId","type":"uint256"}],"name":"LoanLiquidated","type":"event"},{"anonymous":false,"inputs":[{"indexed":false,"internalType":"uint256","name":"selectedLoanId","type":"uint256"}],"name":"RandomLoanSelected","type":"event"},{"inputs":[],"name":"callbackGasLimit","outputs":[{"internalType":"uint32","name":"","type":"uint32"}],"stateMutability":"view","type":"function"},{"inputs":[],"name":"ccipRouter","outputs":[{"internalType":"address","name":"","type":"address"}],"stateMutability":"view","type":"function"},{"inputs":[],"name":"checkHealth","outputs":[{"internalType":"bool","name":"","type":"bool"}],"stateMutability":"view","type":"function"},{"inputs":[{"internalType":"bytes","name":"","type":"bytes"}],"name":"checkUpkeep","outputs":[{"internalType":"bool","name":"upkeepNeeded","type":"bool"},{"internalType":"bytes","name":"performData","type":"bytes"}],"stateMutability":"view","type":"function"},{"inputs":[],"name":"getLatestETHPrice","outputs":[{"internalType":"int256","name":"","type":"int256"}],"stateMutability":"view","type":"function"},{"inputs":[],"name":"keyHash","outputs":[{"internalType":"bytes32","name":"","type":"bytes32"}],"stateMutability":"view","type":"function"},{"inputs":[{"internalType":"uint256","name":"_loanId","type":"uint256"}],"name":"liquidateLoan","outputs":[],"stateMutability":"nonpayable","type":"function"},{"inputs":[],"name":"loanId","outputs":[{"internalType":"uint256","name":"","type":"uint256"}],"stateMutability":"view","type":"function"},{"inputs":[{"internalType":"uint256","name":"","type":"uint256"}],"name":"loans","outputs":[{"internalType":"address","name":"borrower","type":"address"},{"internalType":"uint256","name":"amount","type":"uint256"},{"internalType":"bool","name":"repaid","type":"bool"},{"internalType":"uint8","name":"riskTier","type":"uint8"}],"stateMutability":"view","type":"function"},{"inputs":[],"name":"numWords","outputs":[{"internalType":"uint32","name":"","type":"uint32"}],"stateMutability":"view","type":"function"},{"inputs":[{"internalType":"bytes","name":"performData","type":"bytes"}],"name":"performUpkeep","outputs":[],"stateMutability":"nonpayable","type":"function"},{"inputs":[{"internalType":"uint256","name":"requestId","type":"uint256"},{"internalType":"uint256[]","name":"randomWords","type":"uint256[]"}],"name":"rawFulfillRandomWords","outputs":[],"stateMutability":"nonpayable","type":"function"},{"inputs":[{"internalType":"string","name":"data","type":"string"}],"name":"receiveCrossChainMessage","outputs":[],"stateMutability":"nonpayable","type":"function"},{"inputs":[{"internalType":"uint256","name":"assetId","type":"uint256"},{"internalType":"uint256","name":"amount","type":"uint256"}],"name":"receiveLoanApproval","outputs":[],"stateMutability":"nonpayable","type":"function"},{"inputs":[],"name":"requestAudit","outputs":[],"stateMutability":"nonpayable","type":"function"},{"inputs":[],"name":"requestConfirmations","outputs":[{"internalType":"uint16","name":"","type":"uint16"}],"stateMutability":"view","type":"function"},{"inputs":[],"name":"riskManager","outputs":[{"internalType":"contract IAIRiskManager","name":"","type":"address"}],"stateMutability":"view","type":"function"},{"inputs":[],"name":"subscriptionId","outputs":[{"internalType":"uint64","name":"","type":"uint64"}],"stateMutability":"view","type":"function"}],"evm":{"bytecode":{"linkReferences":{},"object":"60a0604052620186a0600560086101000a81548163ffffffff021916908363ffffffff16021790555060036005600c6101000a81548161ffff021916908361ffff16021790555060016005600e6101000a81548163ffffffff021916908363ffffffff1602179055503480156200007557600080fd5b5060405162001e6d38038062001e6d83398181016040528101906200009b9190620002fa565b828073ffffffffffffffffffffffffffffffffffffffff1660808173ffffffffffffffffffffffffffffffffffffffff168152505050856000806101000a81548173ffffffffffffffffffffffffffffffffffffffff021916908373ffffffffffffffffffffffffffffffffffffffff16021790555084600160006101000a81548173ffffffffffffffffffffffffffffffffffffffff021916908373ffffffffffffffffffffffffffffffffffffffff16021790555083600260006101000a81548173ffffffffffffffffffffffffffffffffffffffff021916908373ffffffffffffffffffffffffffffffffffffffff16021790555082600360006101000a81548173ffffffffffffffffffffffffffffffffffffffff021916908373ffffffffffffffffffffffffffffffffffffffff1602179055508160048190555080600560006101000a81548167ffffffffffffffff021916908367ffffffffffffffff16021790555050505050505062000396565b600080fd5b600073ffffffffffffffffffffffffffffffffffffffff82169050919050565b6000620002428262000215565b9050919050565b620002548162000235565b81146200026057600080fd5b50565b600081519050620002748162000249565b92915050565b6000819050919050565b6200028f816200027a565b81146200029b57600080fd5b50565b600081519050620002af8162000284565b92915050565b600067ffffffffffffffff82169050919050565b620002d481620002b5565b8114620002e057600080fd5b50565b600081519050620002f481620002c9565b92915050565b60008060008060008060c087890312156200031a576200031962000210565b5b60006200032a89828a0162000263565b96505060206200033d89828a0162000263565b95505060406200035089828a0162000263565b94505060606200036389828a0162000263565b93505060806200037689828a016200029e565b92505060a06200038989828a01620002e3565b9150509295509295509295565b608051611ab4620003b96000396000818161038c01526103e00152611ab46000f3fe608060405234801561001057600080fd5b50600436106101165760003560e01c80636e04ff0d116100a2578063b0fb162f11610071578063b0fb162f1461029a578063c95669a5146102b8578063ccdd9f5d146102d6578063e1ec3c68146102f2578063e86490e21461032557610116565b80636e04ff0d14610211578063777e0d86146102425780637ccfd7fc1461026057806386fcdc191461027e57610116565b806324f74697116100e957806324f74697146101915780632bdf0038146101af5780634585e33b146101b957806347842663146101d557806361728f39146101f357610116565b806309c1ba2e1461011b5780630de22984146101395780631753bbd7146101575780631fe543e314610175575b600080fd5b610123610341565b6040516101309190610ddd565b60405180910390f35b61014161035b565b60405161014e9190610e39565b60405180910390f35b61015f610381565b60405161016c9190610e6f565b60405180910390f35b61018f600480360381019061018a919061102d565b61038a565b005b61019961044a565b6040516101a691906110a8565b60405180910390f35b6101b7610460565b005b6101d360048036038101906101ce919061111e565b61059a565b005b6101dd6105bb565b6040516101ea91906111ca565b60405180910390f35b6101fb6105e1565b60405161020891906111fe565b60405180910390f35b61022b6004803603810190610226919061111e565b6105e7565b604051610239929190611298565b60405180910390f35b61024a610746565b60405161025791906112e1565b60405180910390f35b6102686107e5565b60405161027591906110a8565b60405180910390f35b610298600480360381019061029391906112fc565b6107fb565b005b6102a261092b565b6040516102af9190611359565b60405180910390f35b6102c061093f565b6040516102cd9190611383565b60405180910390f35b6102f060048036038101906102eb919061139e565b610945565b005b61030c6004803603810190610307919061139e565b610a12565b60405161031c94939291906113e7565b60405180910390f35b61033f600480360381019061033a9190611482565b610a7c565b005b600560009054906101000a900467ffffffffffffffff1681565b600260009054906101000a900473ffffffffffffffffffffffffffffffffffffffff1681565b60006001905090565b7f000000000000000000000000000000000000000000000000000000000000000073ffffffffffffffffffffffffffffffffffffffff163373ffffffffffffffffffffffffffffffffffffffff161461043c57337f00000000000000000000000000000000000000000000000000000000000000006040517f1cf993f40000000000000000000000000000000000000000000000000000000081526004016104339291906114cf565b60405180910390fd5b6104468282610b10565b5050565b600560089054906101000a900463ffffffff1681565b6000600754116104a5576040517f08c379a000000000000000000000000000000000000000000000000000000000815260040161049c90611555565b60405180910390fd5b600360009054906101000a900473ffffffffffffffffffffffffffffffffffffffff1673ffffffffffffffffffffffffffffffffffffffff16635d3b1d30600454600560009054906101000a900467ffffffffffffffff166005600c9054906101000a900461ffff16600560089054906101000a900463ffffffff166005600e9054906101000a900463ffffffff166040518663ffffffff1660e01b8152600401610554959493929190611575565b6020604051808303816000875af1158015610573573d6000803e3d6000fd5b505050506040513d601f19601f8201168201806040525081019061059791906115dd565b50565b600082828101906105ab919061139e565b90506105b681610945565b505050565b600160009054906101000a900473ffffffffffffffffffffffffffffffffffffffff1681565b60045481565b6000606060005b600754811015610727576006600082815260200190815260200160002060020160009054906101000a900460ff161580156106e357506106e2600660008381526020019081526020016000206040518060800160405290816000820160009054906101000a900473ffffffffffffffffffffffffffffffffffffffff1673ffffffffffffffffffffffffffffffffffffffff1673ffffffffffffffffffffffffffffffffffffffff168152602001600182015481526020016002820160009054906101000a900460ff161515151581526020016002820160019054906101000a900460ff1660ff1660ff1681525050610b79565b5b15610714576001816040516020016106fb9190611383565b604051602081830303815290604052925092505061073f565b808061071f90611639565b9150506105ee565b50600060405180602001604052806000815250915091505b9250929050565b60008060008054906101000a900473ffffffffffffffffffffffffffffffffffffffff1673ffffffffffffffffffffffffffffffffffffffff1663feaf968c6040518163ffffffff1660e01b815260040160a060405180830381865afa1580156107b4573d6000803e3d6000fd5b505050506040513d601f19601f820116820180604052508101906107d891906116ef565b5050509150508091505090565b6005600e9054906101000a900463ffffffff1681565b6000600160009054906101000a900473ffffffffffffffffffffffffffffffffffffffff1673ffffffffffffffffffffffffffffffffffffffff1663dc08706d336040518263ffffffff1660e01b81526004016108589190610e39565b602060405180830381865afa158015610875573d6000803e3d6000fd5b505050506040513d601f19601f820116820180604052508101906108999190611796565b905060028160ff1610156108e2576040517f08c379a00000000000000000000000000000000000000000000000000000000081526004016108d99061180f565b60405180910390fd5b6108eb82610b91565b7f3c227ef12195f88b4263ee086a2732948a4e23244a4277294b8c9b177d56aa5b83833360405161091e9392919061182f565b60405180910390a1505050565b6005600c9054906101000a900461ffff1681565b60075481565b6006600082815260200190815260200160002060020160009054906101000a900460ff16156109a9576040517f08c379a00000000000000000000000000000000000000000000000000000000081526004016109a0906118b2565b60405180910390fd5b60016006600083815260200190815260200160002060020160006101000a81548160ff0219169083151502179055507faf91ffe368225045d42f7c2b4b90feb438133ac1e375e73bc9066652b70a1d7781604051610a079190611383565b60405180910390a150565b60066020528060005260406000206000915090508060000160009054906101000a900473ffffffffffffffffffffffffffffffffffffffff16908060010154908060020160009054906101000a900460ff16908060020160019054906101000a900460ff16905084565b600260009054906101000a900473ffffffffffffffffffffffffffffffffffffffff1673ffffffffffffffffffffffffffffffffffffffff163373ffffffffffffffffffffffffffffffffffffffff1614610b0c576040517f08c379a0000000000000000000000000000000000000000000000000000000008152600401610b039061191e565b60405180910390fd5b5050565b600060075482600081518110610b2957610b2861193e565b5b6020026020010151610b3b919061199c565b90507fb46fced3a6df62223b1457dd73f5a2b175fcaa90e8b757f5ef3dcb74d679464581604051610b6c9190611383565b60405180910390a1505050565b6000670de0b6b3a76400008260200151119050919050565b6000600160009054906101000a900473ffffffffffffffffffffffffffffffffffffffff1673ffffffffffffffffffffffffffffffffffffffff1663dc08706d336040518263ffffffff1660e01b8152600401610bee9190610e39565b602060405180830381865afa158015610c0b573d6000803e3d6000fd5b505050506040513d601f19601f82011682018060405250810190610c2f9190611796565b905060028160ff161015610c78576040517f08c379a0000000000000000000000000000000000000000000000000000000008152600401610c6f90611a19565b60405180910390fd5b60405180608001604052803373ffffffffffffffffffffffffffffffffffffffff1681526020018381526020016000151581526020018260ff1681525060066000600754815260200190815260200160002060008201518160000160006101000a81548173ffffffffffffffffffffffffffffffffffffffff021916908373ffffffffffffffffffffffffffffffffffffffff1602179055506020820151816001015560408201518160020160006101000a81548160ff02191690831515021790555060608201518160020160016101000a81548160ff021916908360ff1602179055509050507f2a2a0e30be66d7708fcc027c3528f84a6e08918887209091c74bec2387cb0c2e338360075484604051610d969493929190611a39565b60405180910390a160076000815480929190610db190611639565b91905055505050565b600067ffffffffffffffff82169050919050565b610dd781610dba565b82525050565b6000602082019050610df26000830184610dce565b92915050565b600073ffffffffffffffffffffffffffffffffffffffff82169050919050565b6000610e2382610df8565b9050919050565b610e3381610e18565b82525050565b6000602082019050610e4e6000830184610e2a565b92915050565b60008115159050919050565b610e6981610e54565b82525050565b6000602082019050610e846000830184610e60565b92915050565b6000604051905090565b600080fd5b600080fd5b6000819050919050565b610eb181610e9e565b8114610ebc57600080fd5b50565b600081359050610ece81610ea8565b92915050565b600080fd5b6000601f19601f8301169050919050565b7f4e487b7100000000000000000000000000000000000000000000000000000000600052604160045260246000fd5b610f2282610ed9565b810181811067ffffffffffffffff82111715610f4157610f40610eea565b5b80604052505050565b6000610f54610e8a565b9050610f608282610f19565b919050565b600067ffffffffffffffff821115610f8057610f7f610eea565b5b602082029050602081019050919050565b600080fd5b6000610fa9610fa484610f65565b610f4a565b90508083825260208201905060208402830185811115610fcc57610fcb610f91565b5b835b81811015610ff55780610fe18882610ebf565b845260208401935050602081019050610fce565b5050509392505050565b600082601f83011261101457611013610ed4565b5b8135611024848260208601610f96565b91505092915050565b6000806040838503121561104457611043610e94565b5b600061105285828601610ebf565b925050602083013567ffffffffffffffff81111561107357611072610e99565b5b61107f85828601610fff565b9150509250929050565b600063ffffffff82169050919050565b6110a281611089565b82525050565b60006020820190506110bd6000830184611099565b92915050565b600080fd5b60008083601f8401126110de576110dd610ed4565b5b8235905067ffffffffffffffff8111156110fb576110fa6110c3565b5b60208301915083600182028301111561111757611116610f91565b5b9250929050565b6000806020838503121561113557611134610e94565b5b600083013567ffffffffffffffff81111561115357611152610e99565b5b61115f858286016110c8565b92509250509250929050565b6000819050919050565b600061119061118b61118684610df8565b61116b565b610df8565b9050919050565b60006111a282611175565b9050919050565b60006111b482611197565b9050919050565b6111c4816111a9565b82525050565b60006020820190506111df60008301846111bb565b92915050565b6000819050919050565b6111f8816111e5565b82525050565b600060208201905061121360008301846111ef565b92915050565b600081519050919050565b600082825260208201905092915050565b60005b83811015611253578082015181840152602081019050611238565b60008484015250505050565b600061126a82611219565b6112748185611224565b9350611284818560208601611235565b61128d81610ed9565b840191505092915050565b60006040820190506112ad6000830185610e60565b81810360208301526112bf818461125f565b90509392505050565b6000819050919050565b6112db816112c8565b82525050565b60006020820190506112f660008301846112d2565b92915050565b6000806040838503121561131357611312610e94565b5b600061132185828601610ebf565b925050602061133285828601610ebf565b9150509250929050565b600061ffff82169050919050565b6113538161133c565b82525050565b600060208201905061136e600083018461134a565b92915050565b61137d81610e9e565b82525050565b60006020820190506113986000830184611374565b92915050565b6000602082840312156113b4576113b3610e94565b5b60006113c284828501610ebf565b91505092915050565b600060ff82169050919050565b6113e1816113cb565b82525050565b60006080820190506113fc6000830187610e2a565b6114096020830186611374565b6114166040830185610e60565b61142360608301846113d8565b95945050505050565b60008083601f84011261144257611441610ed4565b5b8235905067ffffffffffffffff81111561145f5761145e6110c3565b5b60208301915083600182028301111561147b5761147a610f91565b5b9250929050565b6000806020838503121561149957611498610e94565b5b600083013567ffffffffffffffff8111156114b7576114b6610e99565b5b6114c38582860161142c565b92509250509250929050565b60006040820190506114e46000830185610e2a565b6114f16020830184610e2a565b9392505050565b600082825260208201905092915050565b7f4e6f206c6f616e73206578697374000000000000000000000000000000000000600082015250565b600061153f600e836114f8565b915061154a82611509565b602082019050919050565b6000602082019050818103600083015261156e81611532565b9050919050565b600060a08201905061158a60008301886111ef565b6115976020830187610dce565b6115a4604083018661134a565b6115b16060830185611099565b6115be6080830184611099565b9695505050505050565b6000815190506115d781610ea8565b92915050565b6000602082840312156115f3576115f2610e94565b5b6000611601848285016115c8565b91505092915050565b7f4e487b7100000000000000000000000000000000000000000000000000000000600052601160045260246000fd5b600061164482610e9e565b91507fffffffffffffffffffffffffffffffffffffffffffffffffffffffffffffffff82036116765761167561160a565b5b600182019050919050565b600069ffffffffffffffffffff82169050919050565b6116a081611681565b81146116ab57600080fd5b50565b6000815190506116bd81611697565b92915050565b6116cc816112c8565b81146116d757600080fd5b50565b6000815190506116e9816116c3565b92915050565b600080600080600060a0868803121561170b5761170a610e94565b5b6000611719888289016116ae565b955050602061172a888289016116da565b945050604061173b888289016115c8565b935050606061174c888289016115c8565b925050608061175d888289016116ae565b9150509295509295909350565b611773816113cb565b811461177e57600080fd5b50565b6000815190506117908161176a565b92915050565b6000602082840312156117ac576117ab610e94565b5b60006117ba84828501611781565b91505092915050565b7f5269736b20746f6f20686967682028617070726f76616c290000000000000000600082015250565b60006117f96018836114f8565b9150611804826117c3565b602082019050919050565b60006020820190508181036000830152611828816117ec565b9050919050565b60006060820190506118446000830186611374565b6118516020830185611374565b61185e6040830184610e2a565b949350505050565b7f416c726561647920726570616964000000000000000000000000000000000000600082015250565b600061189c600e836114f8565b91506118a782611866565b602082019050919050565b600060208201905081810360008301526118cb8161188f565b9050919050565b7f4f6e6c792043434950526f757465720000000000000000000000000000000000600082015250565b6000611908600f836114f8565b9150611913826118d2565b602082019050919050565b60006020820190508181036000830152611937816118fb565b9050919050565b7f4e487b7100000000000000000000000000000000000000000000000000000000600052603260045260246000fd5b7f4e487b7100000000000000000000000000000000000000000000000000000000600052601260045260246000fd5b60006119a782610e9e565b91506119b283610e9e565b9250826119c2576119c161196d565b5b828206905092915050565b7f5269736b20746f6f206869676800000000000000000000000000000000000000600082015250565b6000611a03600d836114f8565b9150611a0e826119cd565b602082019050919050565b60006020820190508181036000830152611a32816119f6565b9050919050565b6000608082019050611a4e6000830187610e2a565b611a5b6020830186611374565b611a686040830185611374565b611a7560608301846113d8565b9594505050505056fea26469706673582212208f56a2ae33e1f08bc9125984254b34f7f64e3e161c85b85b1cb7c7479418594d64736f6c63430008140033","opcodes":"PUSH1 0xA0 PUSH1 0x40 MSTORE PUSH3 0x186A0 PUSH1 0x5 PUSH1 0x8 PUSH2 0x100 EXP DUP2 SLOAD DUP2 PUSH4 0xFFFFFFFF MUL NOT AND SWAP1 DUP4 PUSH4 0xFFFFFFFF AND MUL OR SWAP1 SSTORE POP PUSH1 0x3 PUSH1 0x5 PUSH1 0xC PUSH2 0x100 EXP DUP2 SLOAD DUP2 PUSH2 0xFFFF MUL NOT AND SWAP1 DUP4 PUSH2 0xFFFF AND MUL OR SWAP1 SSTORE POP PUSH1 0x1 PUSH1 0x5 PUSH1 0xE PUSH2 0x100 EXP DUP2 SLOAD DUP2 PUSH4 0xFFFFFFFF MUL NOT AND SWAP1 DUP4 PUSH4 0xFFFFFFFF AND MUL OR SWAP1 SSTORE POP CALLVALUE DUP1 ISZERO PUSH3 0x75 JUMPI PUSH1 0x0 DUP1 REVERT JUMPDEST POP PUSH1 0x40 MLOAD PUSH3 0x1E6D CODESIZE SUB DUP1 PUSH3 0x1E6D DUP4 CODECOPY DUP2 DUP2 ADD PUSH1 0x40 MSTORE DUP2 ADD SWAP1 PUSH3 0x9B SWAP2 SWAP1 PUSH3 0x2FA JUMP JUMPDEST DUP3 DUP1 PUSH20 0xFFFFFFFFFFFFFFFFFFFFFFFFFFFFFFFFFFFFFFFF AND PUSH1 0x80 DUP2 PUSH20 0xFFFFFFFFFFFFFFFFFFFFFFFFFFFFFFFFFFFFFFFF AND DUP2 MSTORE POP POP POP DUP6 PUSH1 0x0 DUP1 PUSH2 0x100 EXP DUP2 SLOAD DUP2 PUSH20 0xFFFFFFFFFFFFFFFFFFFFFFFFFFFFFFFFFFFFFFFF MUL NOT AND SWAP1 DUP4 PUSH20 0xFFFFFFFFFFFFFFFFFFFFFFFFFFFFFFFFFFFFFFFF AND MUL OR SWAP1 SSTORE POP DUP5 PUSH1 0x1 PUSH1 0x0 PUSH2 0x100 EXP DUP2 SLOAD DUP2 PUSH20 0xFFFFFFFFFFFFFFFFFFFFFFFFFFFFFFFFFFFFFFFF MUL NOT AND SWAP1 DUP4 PUSH20 0xFFFFFFFFFFFFFFFFFFFFFFFFFFFFFFFFFFFFFFFF AND MUL OR SWAP1 SSTORE POP DUP4 PUSH1 0x2 PUSH1 0x0 PUSH2 0x100 EXP DUP2 SLOAD DUP2 PUSH20 0xFFFFFFFFFFFFFFFFFFFFFFFFFFFFFFFFFFFFFFFF MUL NOT AND SWAP1 DUP4 PUSH20 0xFFFFFFFFFFFFFFFFFFFFFFFFFFFFFFFFFFFFFFFF AND MUL OR SWAP1 SSTORE POP DUP3 PUSH1 0x3 PUSH1 0x0 PUSH2 0x100 EXP DUP2 SLOAD DUP2 PUSH20 0xFFFFFFFFFFFFFFFFFFFFFFFFFFFFFFFFFFFFFFFF MUL NOT AND SWAP1 DUP4 PUSH20 0xFFFFFFFFFFFFFFFFFFFFFFFFFFFFFFFFFFFFFFFF AND MUL OR SWAP1 SSTORE POP DUP2 PUSH1 0x4 DUP2 SWAP1 SSTORE POP DUP1 PUSH1 0x5 PUSH1 0x0 PUSH2 0x100 EXP DUP2 SLOAD DUP2 PUSH8 0xFFFFFFFFFFFFFFFF MUL NOT AND SWAP1 DUP4 PUSH8 0xFFFFFFFFFFFFFFFF AND MUL OR SWAP1 SSTORE POP POP POP POP POP POP POP PUSH3 0x396 JUMP JUMPDEST PUSH1 0x0 DUP1 REVERT JUMPDEST PUSH1 0x0 PUSH20 0xFFFFFFFFFFFFFFFFFFFFFFFFFFFFFFFFFFFFFFFF DUP3 AND SWAP1 POP SWAP2 SWAP1 POP JUMP JUMPDEST PUSH1 0x0 PUSH3 0x242 DUP3 PUSH3 0x215 JUMP JUMPDEST SWAP1 POP SWAP2 SWAP1 POP JUMP JUMPDEST PUSH3 0x254 DUP2 PUSH3 0x235 JUMP JUMPDEST DUP2 EQ PUSH3 0x260 JUMPI PUSH1 0x0 DUP1 REVERT JUMPDEST POP JUMP JUMPDEST PUSH1 0x0 DUP2 MLOAD SWAP1 POP PUSH3 0x274 DUP2 PUSH3 0x249 JUMP JUMPDEST SWAP3 SWAP2 POP POP JUMP JUMPDEST PUSH1 0x0 DUP2 SWAP1 POP SWAP2 SWAP1 POP JUMP JUMPDEST PUSH3 0x28F DUP2 PUSH3 0x27A JUMP JUMPDEST DUP2 EQ PUSH3 0x29B JUMPI PUSH1 0x0 DUP1 REVERT JUMPDEST POP JUMP JUMPDEST PUSH1 0x0 DUP2 MLOAD SWAP1 POP PUSH3 0x2AF DUP2 PUSH3 0x284 JUMP JUMPDEST SWAP3 SWAP2 POP POP JUMP JUMPDEST PUSH1 0x0 PUSH8 0xFFFFFFFFFFFFFFFF DUP3 AND SWAP1 POP SWAP2 SWAP1 POP JUMP JUMPDEST PUSH3 0x2D4 DUP2 PUSH3 0x2B5 JUMP JUMPDEST DUP2 EQ PUSH3 0x2E0 JUMPI PUSH1 0x0 DUP1 REVERT JUMPDEST POP JUMP JUMPDEST PUSH1 0x0 DUP2 MLOAD SWAP1 POP PUSH3 0x2F4 DUP2 PUSH3 0x2C9 JUMP JUMPDEST SWAP3 SWAP2 POP POP JUMP JUMPDEST PUSH1 0x0 DUP1 PUSH1 0x0 DUP1 PUSH1 0x0 DUP1 PUSH1 0xC0 DUP8 DUP10 SUB SLT ISZERO PUSH3 0x31A JUMPI PUSH3 0x319 PUSH3 0x210 JUMP JUMPDEST JUMPDEST PUSH1 0x0 PUSH3 0x32A DUP10 DUP3 DUP11 ADD PUSH3 0x263 JUMP JUMPDEST SWAP7 POP POP PUSH1 0x20 PUSH3 0x33D DUP10 DUP3 DUP11 ADD PUSH3 0x263 JUMP JUMPDEST SWAP6 POP POP PUSH1 0x40 PUSH3 0x350 DUP10 DUP3 DUP11 ADD PUSH3 0x263 JUMP JUMPDEST SWAP5 POP POP PUSH1 0x60 PUSH3 0x363 DUP10 DUP3 DUP11 ADD PUSH3 0x263 JUMP JUMPDEST SWAP4 POP POP PUSH1 0x80 PUSH3 0x376 DUP10 DUP3 DUP11 ADD PUSH3 0x29E JUMP JUMPDEST SWAP3 POP POP PUSH1 0xA0 PUSH3 0x389 DUP10 DUP3 DUP11 ADD PUSH3 0x2E3 JUMP JUMPDEST SWAP2 POP POP SWAP3 SWAP6 POP SWAP3 SWAP6 POP SWAP3 SWAP6 JUMP JUMPDEST PUSH1 0x80 MLOAD PUSH2 0x1AB4 PUSH3 0x3B9 PUSH1 0x0 CODECOPY PUSH1 0x0 DUP2 DUP2 PUSH2 0x38C ADD MSTORE PUSH2 0x3E0 ADD MSTORE PUSH2 0x1AB4 PUSH1 0x0 RETURN INVALID PUSH1 0x80 PUSH1 0x40 MSTORE CALLVALUE DUP1 ISZERO PUSH2 0x10 JUMPI PUSH1 0x0 DUP1 REVERT JUMPDEST POP PUSH1 0x4 CALLDATASIZE LT PUSH2 0x116 JUMPI PUSH1 0x0 CALLDATALOAD PUSH1 0xE0 SHR DUP1 PUSH4 0x6E04FF0D GT PUSH2 0xA2 JUMPI DUP1 PUSH4 0xB0FB162F GT PUSH2 0x71 JUMPI DUP1 PUSH4 0xB0FB162F EQ PUSH2 0x29A JUMPI DUP1 PUSH4 0xC95669A5 EQ PUSH2 0x2B8 JUMPI DUP1 PUSH4 0xCCDD9F5D EQ PUSH2 0x2D6 JUMPI DUP1 PUSH4 0xE1EC3C68 EQ PUSH2 0x2F2 JUMPI DUP1 PUSH4 0xE86490E2 EQ PUSH2 0x325 JUMPI PUSH2 0x116 JUMP JUMPDEST DUP1 PUSH4 0x6E04FF0D EQ PUSH2 0x211 JUMPI DUP1 PUSH4 0x777E0D86 EQ PUSH2 0x242 JUMPI DUP1 PUSH4 0x7CCFD7FC EQ PUSH2 0x260 JUMPI DUP1 PUSH4 0x86FCDC19 EQ PUSH2 0x27E JUMPI PUSH2 0x116 JUMP JUMPDEST DUP1 PUSH4 0x24F74697 GT PUSH2 0xE9 JUMPI DUP1 PUSH4 0x24F74697 EQ PUSH2 0x191 JUMPI DUP1 PUSH4 0x2BDF0038 EQ PUSH2 0x1AF JUMPI DUP1 PUSH4 0x4585E33B EQ PUSH2 0x1B9 JUMPI DUP1 PUSH4 0x47842663 EQ PUSH2 0x1D5 JUMPI DUP1 PUSH4 0x61728F39 EQ PUSH2 0x1F3 JUMPI PUSH2 0x116 JUMP JUMPDEST DUP1 PUSH4 0x9C1BA2E EQ PUSH2 0x11B JUMPI DUP1 PUSH4 0xDE22984 EQ PUSH2 0x139 JUMPI DUP1 PUSH4 0x1753BBD7 EQ PUSH2 0x157 JUMPI DUP1 PUSH4 0x1FE543E3 EQ PUSH2 0x175 JUMPI JUMPDEST PUSH1 0x0 DUP1 REVERT JUMPDEST PUSH2 0x123 PUSH2 0x341 JUMP JUMPDEST PUSH1 0x40 MLOAD PUSH2 0x130 SWAP2 SWAP1 PUSH2 0xDDD JUMP JUMPDEST PUSH1 0x40 MLOAD DUP1 SWAP2 SUB SWAP1 RETURN JUMPDEST PUSH2 0x141 PUSH2 0x35B JUMP JUMPDEST PUSH1 0x40 MLOAD PUSH2 0x14E SWAP2 SWAP1 PUSH2 0xE39 JUMP JUMPDEST PUSH1 0x40 MLOAD DUP1 SWAP2 SUB SWAP1 RETURN JUMPDEST PUSH2 0x15F PUSH2 0x381 JUMP JUMPDEST PUSH1 0x40 MLOAD PUSH2 0x16C SWAP2 SWAP1 PUSH2 0xE6F JUMP JUMPDEST PUSH1 0x40 MLOAD DUP1 SWAP2 SUB SWAP1 RETURN JUMPDEST PUSH2 0x18F PUSH1 0x4 DUP1 CALLDATASIZE SUB DUP2 ADD SWAP1 PUSH2 0x18A SWAP2 SWAP1 PUSH2 0x102D JUMP JUMPDEST PUSH2 0x38A JUMP JUMPDEST STOP JUMPDEST PUSH2 0x199 PUSH2 0x44A JUMP JUMPDEST PUSH1 0x40 MLOAD PUSH2 0x1A6 SWAP2 SWAP1 PUSH2 0x10A8 JUMP JUMPDEST PUSH1 0x40 MLOAD DUP1 SWAP2 SUB SWAP1 RETURN JUMPDEST PUSH2 0x1B7 PUSH2 0x460 JUMP JUMPDEST STOP JUMPDEST PUSH2 0x1D3 PUSH1 0x4 DUP1 CALLDATASIZE SUB DUP2 ADD SWAP1 PUSH2 0x1CE SWAP2 SWAP1 PUSH2 0x111E JUMP JUMPDEST PUSH2 0x59A JUMP JUMPDEST STOP JUMPDEST PUSH2 0x1DD PUSH2 0x5BB JUMP JUMPDEST PUSH1 0x40 MLOAD PUSH2 0x1EA SWAP2 SWAP1 PUSH2 0x11CA JUMP JUMPDEST PUSH1 0x40 MLOAD DUP1 SWAP2 SUB SWAP1 RETURN JUMPDEST PUSH2 0x1FB PUSH2 0x5E1 JUMP JUMPDEST PUSH1 0x40 MLOAD PUSH2 0x208 SWAP2 SWAP1 PUSH2 0x11FE JUMP JUMPDEST PUSH1 0x40 MLOAD DUP1 SWAP2 SUB SWAP1 RETURN JUMPDEST PUSH2 0x22B PUSH1 0x4 DUP1 CALLDATASIZE SUB DUP2 ADD SWAP1 PUSH2 0x226 SWAP2 SWAP1 PUSH2 0x111E JUMP JUMPDEST PUSH2 0x5E7 JUMP JUMPDEST PUSH1 0x40 MLOAD PUSH2 0x239 SWAP3 SWAP2 SWAP1 PUSH2 0x1298 JUMP JUMPDEST PUSH1 0x40 MLOAD DUP1 SWAP2 SUB SWAP1 RETURN JUMPDEST PUSH2 0x24A PUSH2 0x746 JUMP JUMPDEST PUSH1 0x40 MLOAD PUSH2 0x257 SWAP2 SWAP1 PUSH2 0x12E1 JUMP JUMPDEST PUSH1 0x40 MLOAD DUP1 SWAP2 SUB SWAP1 RETURN JUMPDEST PUSH2 0x268 PUSH2 0x7E5 JUMP JUMPDEST PUSH1 0x40 MLOAD PUSH2 0x275 SWAP2 SWAP1 PUSH2 0x10A8 JUMP JUMPDEST PUSH1 0x40 MLOAD DUP1 SWAP2 SUB SWAP1 RETURN JUMPDEST PUSH2 0x298 PUSH1 0x4 DUP1 CALLDATASIZE SUB DUP2 ADD SWAP1 PUSH2 0x293 SWAP2 SWAP1 PUSH2 0x12FC JUMP JUMPDEST PUSH2 0x7FB JUMP JUMPDEST STOP JUMPDEST PUSH2 0x2A2 PUSH2 0x92B JUMP JUMPDEST PUSH1 0x40 MLOAD PUSH2 0x2AF SWAP2 SWAP1 PUSH2 0x1359 JUMP JUMPDEST PUSH1 0x40 MLOAD DUP1 SWAP2 SUB SWAP1 RETURN JUMPDEST PUSH2 0x2C0 PUSH2 0x93F JUMP JUMPDEST PUSH1 0x40 MLOAD PUSH2 0x2CD SWAP2 SWAP1 PUSH2 0x1383 JUMP JUMPDEST PUSH1 0x40 MLOAD DUP1 SWAP2 SUB SWAP1 RETURN JUMPDEST PUSH2 0x2F0 PUSH1 0x4 DUP1 CALLDATASIZE SUB DUP2 ADD SWAP1 PUSH2 0x2EB SWAP2 SWAP1 PUSH2 0x139E JUMP JUMPDEST PUSH2 0x945 JUMP JUMPDEST STOP JUMPDEST PUSH2 0x30C PUSH1 0x4 DUP1 CALLDATASIZE SUB DUP2 ADD SWAP1 PUSH2 0x307 SWAP2 SWAP1 PUSH2 0x139E JUMP JUMPDEST PUSH2 0xA12 JUMP JUMPDEST PUSH1 0x40 MLOAD PUSH2 0x31C SWAP5 SWAP4 SWAP3 SWAP2 SWAP1 PUSH2 0x13E7 JUMP JUMPDEST PUSH1 0x40 MLOAD DUP1 SWAP2 SUB SWAP1 RETURN JUMPDEST PUSH2 0x33F PUSH1 0x4 DUP1 CALLDATASIZE SUB DUP2 ADD SWAP1 PUSH2 0x33A SWAP2 SWAP1 PUSH2 0x1482 JUMP JUMPDEST PUSH2 0xA7C JUMP JUMPDEST STOP JUMPDEST PUSH1 0x5 PUSH1 0x0 SWAP1 SLOAD SWAP1 PUSH2 0x100 EXP SWAP1 DIV PUSH8 0xFFFFFFFFFFFFFFFF AND DUP2 JUMP JUMPDEST PUSH1 0x2 PUSH1 0x0 SWAP1 SLOAD SWAP1 PUSH2 0x100 EXP SWAP1 DIV PUSH20 0xFFFFFFFFFFFFFFFFFFFFFFFFFFFFFFFFFFFFFFFF AND DUP2 JUMP JUMPDEST PUSH1 0x0 PUSH1 0x1 SWAP1 POP SWAP1 JUMP JUMPDEST PUSH32 0x0 PUSH20 0xFFFFFFFFFFFFFFFFFFFFFFFFFFFFFFFFFFFFFFFF AND CALLER PUSH20 0xFFFFFFFFFFFFFFFFFFFFFFFFFFFFFFFFFFFFFFFF AND EQ PUSH2 0x43C JUMPI CALLER PUSH32 0x0 PUSH1 0x40 MLOAD PUSH32 0x1CF993F400000000000000000000000000000000000000000000000000000000 DUP2 MSTORE PUSH1 0x4 ADD PUSH2 0x433 SWAP3 SWAP2 SWAP1 PUSH2 0x14CF JUMP JUMPDEST PUSH1 0x40 MLOAD DUP1 SWAP2 SUB SWAP1 REVERT JUMPDEST PUSH2 0x446 DUP3 DUP3 PUSH2 0xB10 JUMP JUMPDEST POP POP JUMP JUMPDEST PUSH1 0x5 PUSH1 0x8 SWAP1 SLOAD SWAP1 PUSH2 0x100 EXP SWAP1 DIV PUSH4 0xFFFFFFFF AND DUP2 JUMP JUMPDEST PUSH1 0x0 PUSH1 0x7 SLOAD GT PUSH2 0x4A5 JUMPI PUSH1 0x40 MLOAD PUSH32 0x8C379A000000000000000000000000000000000000000000000000000000000 DUP2 MSTORE PUSH1 0x4 ADD PUSH2 0x49C SWAP1 PUSH2 0x1555 JUMP JUMPDEST PUSH1 0x40 MLOAD DUP1 SWAP2 SUB SWAP1 REVERT JUMPDEST PUSH1 0x3 PUSH1 0x0 SWAP1 SLOAD SWAP1 PUSH2 0x100 EXP SWAP1 DIV PUSH20 0xFFFFFFFFFFFFFFFFFFFFFFFFFFFFFFFFFFFFFFFF AND PUSH20 0xFFFFFFFFFFFFFFFFFFFFFFFFFFFFFFFFFFFFFFFF AND PUSH4 0x5D3B1D30 PUSH1 0x4 SLOAD PUSH1 0x5 PUSH1 0x0 SWAP1 SLOAD SWAP1 PUSH2 0x100 EXP SWAP1 DIV PUSH8 0xFFFFFFFFFFFFFFFF AND PUSH1 0x5 PUSH1 0xC SWAP1 SLOAD SWAP1 PUSH2 0x100 EXP SWAP1 DIV PUSH2 0xFFFF AND PUSH1 0x5 PUSH1 0x8 SWAP1 SLOAD SWAP1 PUSH2 0x100 EXP SWAP1 DIV PUSH4 0xFFFFFFFF AND PUSH1 0x5 PUSH1 0xE SWAP1 SLOAD SWAP1 PUSH2 0x100 EXP SWAP1 DIV PUSH4 0xFFFFFFFF AND PUSH1 0x40 MLOAD DUP7 PUSH4 0xFFFFFFFF AND PUSH1 0xE0 SHL DUP2 MSTORE PUSH1 0x4 ADD PUSH2 0x554 SWAP6 SWAP5 SWAP4 SWAP3 SWAP2 SWAP1 PUSH2 0x1575 JUMP JUMPDEST PUSH1 0x20 PUSH1 0x40 MLOAD DUP1 DUP4 SUB DUP2 PUSH1 0x0 DUP8 GAS CALL ISZERO DUP1 ISZERO PUSH2 0x573 JUMPI RETURNDATASIZE PUSH1 0x0 DUP1 RETURNDATACOPY RETURNDATASIZE PUSH1 0x0 REVERT JUMPDEST POP POP POP POP PUSH1 0x40 MLOAD RETURNDATASIZE PUSH1 0x1F NOT PUSH1 0x1F DUP3 ADD AND DUP3 ADD DUP1 PUSH1 0x40 MSTORE POP DUP2 ADD SWAP1 PUSH2 0x597 SWAP2 SWAP1 PUSH2 0x15DD JUMP JUMPDEST POP JUMP JUMPDEST PUSH1 0x0 DUP3 DUP3 DUP2 ADD SWAP1 PUSH2 0x5AB SWAP2 SWAP1 PUSH2 0x139E JUMP JUMPDEST SWAP1 POP PUSH2 0x5B6 DUP2 PUSH2 0x945 JUMP JUMPDEST POP POP POP JUMP JUMPDEST PUSH1 0x1 PUSH1 0x0 SWAP1 SLOAD SWAP1 PUSH2 0x100 EXP SWAP1 DIV PUSH20 0xFFFFFFFFFFFFFFFFFFFFFFFFFFFFFFFFFFFFFFFF AND DUP2 JUMP JUMPDEST PUSH1 0x4 SLOAD DUP2 JUMP JUMPDEST PUSH1 0x0 PUSH1 0x60 PUSH1 0x0 JUMPDEST PUSH1 0x7 SLOAD DUP2 LT ISZERO PUSH2 0x727 JUMPI PUSH1 0x6 PUSH1 0x0 DUP3 DUP2 MSTORE PUSH1 0x20 ADD SWAP1 DUP2 MSTORE PUSH1 0x20 ADD PUSH1 0x0 KECCAK256 PUSH1 0x2 ADD PUSH1 0x0 SWAP1 SLOAD SWAP1 PUSH2 0x100 EXP SWAP1 DIV PUSH1 0xFF AND ISZERO DUP1 ISZERO PUSH2 0x6E3 JUMPI POP PUSH2 0x6E2 PUSH1 0x6 PUSH1 0x0 DUP4 DUP2 MSTORE PUSH1 0x20 ADD SWAP1 DUP2 MSTORE PUSH1 0x20 ADD PUSH1 0x0 KECCAK256 PUSH1 0x40 MLOAD DUP1 PUSH1 0x80 ADD PUSH1 0x40 MSTORE SWAP1 DUP2 PUSH1 0x0 DUP3 ADD PUSH1 0x0 SWAP1 SLOAD SWAP1 PUSH2 0x100 EXP SWAP1 DIV PUSH20 0xFFFFFFFFFFFFFFFFFFFFFFFFFFFFFFFFFFFFFFFF AND PUSH20 0xFFFFFFFFFFFFFFFFFFFFFFFFFFFFFFFFFFFFFFFF AND PUSH20 0xFFFFFFFFFFFFFFFFFFFFFFFFFFFFFFFFFFFFFFFF AND DUP2 MSTORE PUSH1 0x20 ADD PUSH1 0x1 DUP3 ADD SLOAD DUP2 MSTORE PUSH1 0x20 ADD PUSH1 0x2 DUP3 ADD PUSH1 0x0 SWAP1 SLOAD SWAP1 PUSH2 0x100 EXP SWAP1 DIV PUSH1 0xFF AND ISZERO ISZERO ISZERO ISZERO DUP2 MSTORE PUSH1 0x20 ADD PUSH1 0x2 DUP3 ADD PUSH1 0x1 SWAP1 SLOAD SWAP1 PUSH2 0x100 EXP SWAP1 DIV PUSH1 0xFF AND PUSH1 0xFF AND PUSH1 0xFF AND DUP2 MSTORE POP POP PUSH2 0xB79 JUMP JUMPDEST JUMPDEST ISZERO PUSH2 0x714 JUMPI PUSH1 0x1 DUP2 PUSH1 0x40 MLOAD PUSH1 0x20 ADD PUSH2 0x6FB SWAP2 SWAP1 PUSH2 0x1383 JUMP JUMPDEST PUSH1 0x40 MLOAD PUSH1 0x20 DUP2 DUP4 SUB SUB DUP2 MSTORE SWAP1 PUSH1 0x40 MSTORE SWAP3 POP SWAP3 POP POP PUSH2 0x73F JUMP JUMPDEST DUP1 DUP1 PUSH2 0x71F SWAP1 PUSH2 0x1639 JUMP JUMPDEST SWAP2 POP POP PUSH2 0x5EE JUMP JUMPDEST POP PUSH1 0x0 PUSH1 0x40 MLOAD DUP1 PUSH1 0x20 ADD PUSH1 0x40 MSTORE DUP1 PUSH1 0x0 DUP2 MSTORE POP SWAP2 POP SWAP2 POP JUMPDEST SWAP3 POP SWAP3 SWAP1 POP JUMP JUMPDEST PUSH1 0x0 DUP1 PUSH1 0x0 DUP1 SLOAD SWAP1 PUSH2 0x100 EXP SWAP1 DIV PUSH20 0xFFFFFFFFFFFFFFFFFFFFFFFFFFFFFFFFFFFFFFFF AND PUSH20 0xFFFFFFFFFFFFFFFFFFFFFFFFFFFFFFFFFFFFFFFF AND PUSH4 0xFEAF968C PUSH1 0x40 MLOAD DUP2 PUSH4 0xFFFFFFFF AND PUSH1 0xE0 SHL DUP2 MSTORE PUSH1 0x4 ADD PUSH1 0xA0 PUSH1 0x40 MLOAD DUP1 DUP4 SUB DUP2 DUP7 GAS STATICCALL ISZERO DUP1 ISZERO PUSH2 0x7B4 JUMPI RETURNDATASIZE PUSH1 0x0 DUP1 RETURNDATACOPY RETURNDATASIZE PUSH1 0x0 REVERT JUMPDEST POP POP POP POP PUSH1 0x40 MLOAD RETURNDATASIZE PUSH1 0x1F NOT PUSH1 0x1F DUP3 ADD AND DUP3 ADD DUP1 PUSH1 0x40 MSTORE POP DUP2 ADD SWAP1 PUSH2 0x7D8 SWAP2 SWAP1 PUSH2 0x16EF JUMP JUMPDEST POP POP POP SWAP2 POP POP DUP1 SWAP2 POP POP SWAP1 JUMP JUMPDEST PUSH1 0x5 PUSH1 0xE SWAP1 SLOAD SWAP1 PUSH2 0x100 EXP SWAP1 DIV PUSH4 0xFFFFFFFF AND DUP2 JUMP JUMPDEST PUSH1 0x0 PUSH1 0x1 PUSH1 0x0 SWAP1 SLOAD SWAP1 PUSH2 0x100 EXP SWAP1 DIV PUSH20 0xFFFFFFFFFFFFFFFFFFFFFFFFFFFFFFFFFFFFFFFF AND PUSH20 0xFFFFFFFFFFFFFFFFFFFFFFFFFFFFFFFFFFFFFFFF AND PUSH4 0xDC08706D CALLER PUSH1 0x40 MLOAD DUP3 PUSH4 0xFFFFFFFF AND PUSH1 0xE0 SHL DUP2 MSTORE PUSH1 0x4 ADD PUSH2 0x858 SWAP2 SWAP1 PUSH2 0xE39 JUMP JUMPDEST PUSH1 0x20 PUSH1 0x40 MLOAD DUP1 DUP4 SUB DUP2 DUP7 GAS STATICCALL ISZERO DUP1 ISZERO PUSH2 0x875 JUMPI RETURNDATASIZE PUSH1 0x0 DUP1 RETURNDATACOPY RETURNDATASIZE PUSH1 0x0 REVERT JUMPDEST POP POP POP POP PUSH1 0x40 MLOAD RETURNDATASIZE PUSH1 0x1F NOT PUSH1 0x1F DUP3 ADD AND DUP3 ADD DUP1 PUSH1 0x40 MSTORE POP DUP2 ADD SWAP1 PUSH2 0x899 SWAP2 SWAP1 PUSH2 0x1796 JUMP JUMPDEST SWAP1 POP PUSH1 0x2 DUP2 PUSH1 0xFF AND LT ISZERO PUSH2 0x8E2 JUMPI PUSH1 0x40 MLOAD PUSH32 0x8C379A000000000000000000000000000000000000000000000000000000000 DUP2 MSTORE PUSH1 0x4 ADD PUSH2 0x8D9 SWAP1 PUSH2 0x180F JUMP JUMPDEST PUSH1 0x40 MLOAD DUP1 SWAP2 SUB SWAP1 REVERT JUMPDEST PUSH2 0x8EB DUP3 PUSH2 0xB91 JUMP JUMPDEST PUSH32 0x3C227EF12195F88B4263EE086A2732948A4E23244A4277294B8C9B177D56AA5B DUP4 DUP4 CALLER PUSH1 0x40 MLOAD PUSH2 0x91E SWAP4 SWAP3 SWAP2 SWAP1 PUSH2 0x182F JUMP JUMPDEST PUSH1 0x40 MLOAD DUP1 SWAP2 SUB SWAP1 LOG1 POP POP POP JUMP JUMPDEST PUSH1 0x5 PUSH1 0xC SWAP1 SLOAD SWAP1 PUSH2 0x100 EXP SWAP1 DIV PUSH2 0xFFFF AND DUP2 JUMP JUMPDEST PUSH1 0x7 SLOAD DUP2 JUMP JUMPDEST PUSH1 0x6 PUSH1 0x0 DUP3 DUP2 MSTORE PUSH1 0x20 ADD SWAP1 DUP2 MSTORE PUSH1 0x20 ADD PUSH1 0x0 KECCAK256 PUSH1 0x2 ADD PUSH1 0x0 SWAP1 SLOAD SWAP1 PUSH2 0x100 EXP SWAP1 DIV PUSH1 0xFF AND ISZERO PUSH2 0x9A9 JUMPI PUSH1 0x40 MLOAD PUSH32 0x8C379A000000000000000000000000000000000000000000000000000000000 DUP2 MSTORE PUSH1 0x4 ADD PUSH2 0x9A0 SWAP1 PUSH2 0x18B2 JUMP JUMPDEST PUSH1 0x40 MLOAD DUP1 SWAP2 SUB SWAP1 REVERT JUMPDEST PUSH1 0x1 PUSH1 0x6 PUSH1 0x0 DUP4 DUP2 MSTORE PUSH1 0x20 ADD SWAP1 DUP2 MSTORE PUSH1 0x20 ADD PUSH1 0x0 KECCAK256 PUSH1 0x2 ADD PUSH1 0x0 PUSH2 0x100 EXP DUP2 SLOAD DUP2 PUSH1 0xFF MUL NOT AND SWAP1 DUP4 ISZERO ISZERO MUL OR SWAP1 SSTORE POP PUSH32 0xAF91FFE368225045D42F7C2B4B90FEB438133AC1E375E73BC9066652B70A1D77 DUP2 PUSH1 0x40 MLOAD PUSH2 0xA07 SWAP2 SWAP1 PUSH2 0x1383 JUMP JUMPDEST PUSH1 0x40 MLOAD DUP1 SWAP2 SUB SWAP1 LOG1 POP JUMP JUMPDEST PUSH1 0x6 PUSH1 0x20 MSTORE DUP1 PUSH1 0x0 MSTORE PUSH1 0x40 PUSH1 0x0 KECCAK256 PUSH1 0x0 SWAP2 POP SWAP1 POP DUP1 PUSH1 0x0 ADD PUSH1 0x0 SWAP1 SLOAD SWAP1 PUSH2 0x100 EXP SWAP1 DIV PUSH20 0xFFFFFFFFFFFFFFFFFFFFFFFFFFFFFFFFFFFFFFFF AND SWAP1 DUP1 PUSH1 0x1 ADD SLOAD SWAP1 DUP1 PUSH1 0x2 ADD PUSH1 0x0 SWAP1 SLOAD SWAP1 PUSH2 0x100 EXP SWAP1 DIV PUSH1 0xFF AND SWAP1 DUP1 PUSH1 0x2 ADD PUSH1 0x1 SWAP1 SLOAD SWAP1 PUSH2 0x100 EXP SWAP1 DIV PUSH1 0xFF AND SWAP1 POP DUP5 JUMP JUMPDEST PUSH1 0x2 PUSH1 0x0 SWAP1 SLOAD SWAP1 PUSH2 0x100 EXP SWAP1 DIV PUSH20 0xFFFFFFFFFFFFFFFFFFFFFFFFFFFFFFFFFFFFFFFF AND PUSH20 0xFFFFFFFFFFFFFFFFFFFFFFFFFFFFFFFFFFFFFFFF AND CALLER PUSH20 0xFFFFFFFFFFFFFFFFFFFFFFFFFFFFFFFFFFFFFFFF AND EQ PUSH2 0xB0C JUMPI PUSH1 0x40 MLOAD PUSH32 0x8C379A000000000000000000000000000000000000000000000000000000000 DUP2 MSTORE PUSH1 0x4 ADD PUSH2 0xB03 SWAP1 PUSH2 0x191E JUMP JUMPDEST PUSH1 0x40 MLOAD DUP1 SWAP2 SUB SWAP1 REVERT JUMPDEST POP POP JUMP JUMPDEST PUSH1 0x0 PUSH1 0x7 SLOAD DUP3 PUSH1 0x0 DUP2 MLOAD DUP2 LT PUSH2 0xB29 JUMPI PUSH2 0xB28 PUSH2 0x193E JUMP JUMPDEST JUMPDEST PUSH1 0x20 MUL PUSH1 0x20 ADD ADD MLOAD PUSH2 0xB3B SWAP2 SWAP1 PUSH2 0x199C JUMP JUMPDEST SWAP1 POP PUSH32 0xB46FCED3A6DF62223B1457DD73F5A2B175FCAA90E8B757F5EF3DCB74D6794645 DUP2 PUSH1 0x40 MLOAD PUSH2 0xB6C SWAP2 SWAP1 PUSH2 0x1383 JUMP JUMPDEST PUSH1 0x40 MLOAD DUP1 SWAP2 SUB SWAP1 LOG1 POP POP POP JUMP JUMPDEST PUSH1 0x0 PUSH8 0xDE0B6B3A7640000 DUP3 PUSH1 0x20 ADD MLOAD GT SWAP1 POP SWAP2 SWAP1 POP JUMP JUMPDEST PUSH1 0x0 PUSH1 0x1 PUSH1 0x0 SWAP1 SLOAD SWAP1 PUSH2 0x100 EXP SWAP1 DIV PUSH20 0xFFFFFFFFFFFFFFFFFFFFFFFFFFFFFFFFFFFFFFFF AND PUSH20 0xFFFFFFFFFFFFFFFFFFFFFFFFFFFFFFFFFFFFFFFF AND PUSH4 0xDC08706D CALLER PUSH1 0x40 MLOAD DUP3 PUSH4 0xFFFFFFFF AND PUSH1 0xE0 SHL DUP2 MSTORE PUSH1 0x4 ADD PUSH2 0xBEE SWAP2 SWAP1 PUSH2 0xE39 JUMP JUMPDEST PUSH1 0x20 PUSH1 0x40 MLOAD DUP1 DUP4 SUB DUP2 DUP7 GAS STATICCALL ISZERO DUP1 ISZERO PUSH2 0xC0B JUMPI RETURNDATASIZE PUSH1 0x0 DUP1 RETURNDATACOPY RETURNDATASIZE PUSH1 0x0 REVERT JUMPDEST POP POP POP POP PUSH1 0x40 MLOAD RETURNDATASIZE PUSH1 0x1F NOT PUSH1 0x1F DUP3 ADD AND DUP3 ADD DUP1 PUSH1 0x40 MSTORE POP DUP2 ADD SWAP1 PUSH2 0xC2F SWAP2 SWAP1 PUSH2 0x1796 JUMP JUMPDEST SWAP1 POP PUSH1 0x2 DUP2 PUSH1 0xFF AND LT ISZERO PUSH2 0xC78 JUMPI PUSH1 0x40 MLOAD PUSH32 0x8C379A000000000000000000000000000000000000000000000000000000000 DUP2 MSTORE PUSH1 0x4 ADD PUSH2 0xC6F SWAP1 PUSH2 0x1A19 JUMP JUMPDEST PUSH1 0x40 MLOAD DUP1 SWAP2 SUB SWAP1 REVERT JUMPDEST PUSH1 0x40 MLOAD DUP1 PUSH1 0x80 ADD PUSH1 0x40 MSTORE DUP1 CALLER PUSH20 0xFFFFFFFFFFFFFFFFFFFFFFFFFFFFFFFFFFFFFFFF AND DUP2 MSTORE PUSH1 0x20 ADD DUP4 DUP2 MSTORE PUSH1 0x20 ADD PUSH1 0x0 ISZERO ISZERO DUP2 MSTORE PUSH1 0x20 ADD DUP3 PUSH1 0xFF AND DUP2 MSTORE POP PUSH1 0x6 PUSH1 0x0 PUSH1 0x7 SLOAD DUP2 MSTORE PUSH1 0x20 ADD SWAP1 DUP2 MSTORE PUSH1 0x20 ADD PUSH1 0x0 KECCAK256 PUSH1 0x0 DUP3 ADD MLOAD DUP2 PUSH1 0x0 ADD PUSH1 0x0 PUSH2 0x100 EXP DUP2 SLOAD DUP2 PUSH20 0xFFFFFFFFFFFFFFFFFFFFFFFFFFFFFFFFFFFFFFFF MUL NOT AND SWAP1 DUP4 PUSH20 0xFFFFFFFFFFFFFFFFFFFFFFFFFFFFFFFFFFFFFFFF AND MUL OR SWAP1 SSTORE POP PUSH1 0x20 DUP3 ADD MLOAD DUP2 PUSH1 0x1 ADD SSTORE PUSH1 0x40 DUP3 ADD MLOAD DUP2 PUSH1 0x2 ADD PUSH1 0x0 PUSH2 0x100 EXP DUP2 SLOAD DUP2 PUSH1 0xFF MUL NOT AND SWAP1 DUP4 ISZERO ISZERO MUL OR SWAP1 SSTORE POP PUSH1 0x60 DUP3 ADD MLOAD DUP2 PUSH1 0x2 ADD PUSH1 0x1 PUSH2 0x100 EXP DUP2 SLOAD DUP2 PUSH1 0xFF MUL NOT AND SWAP1 DUP4 PUSH1 0xFF AND MUL OR SWAP1 SSTORE POP SWAP1 POP POP PUSH32 0x2A2A0E30BE66D7708FCC027C3528F84A6E08918887209091C74BEC2387CB0C2E CALLER DUP4 PUSH1 0x7 SLOAD DUP5 PUSH1 0x40 MLOAD PUSH2 0xD96 SWAP5 SWAP4 SWAP3 SWAP2 SWAP1 PUSH2 0x1A39 JUMP JUMPDEST PUSH1 0x40 MLOAD DUP1 SWAP2 SUB SWAP1 LOG1 PUSH1 0x7 PUSH1 0x0 DUP2 SLOAD DUP1 SWAP3 SWAP2 SWAP1 PUSH2 0xDB1 SWAP1 PUSH2 0x1639 JUMP JUMPDEST SWAP2 SWAP1 POP SSTORE POP POP POP JUMP JUMPDEST PUSH1 0x0 PUSH8 0xFFFFFFFFFFFFFFFF DUP3 AND SWAP1 POP SWAP2 SWAP1 POP JUMP JUMPDEST PUSH2 0xDD7 DUP2 PUSH2 0xDBA JUMP JUMPDEST DUP3 MSTORE POP POP JUMP JUMPDEST PUSH1 0x0 PUSH1 0x20 DUP3 ADD SWAP1 POP PUSH2 0xDF2 PUSH1 0x0 DUP4 ADD DUP5 PUSH2 0xDCE JUMP JUMPDEST SWAP3 SWAP2 POP POP JUMP JUMPDEST PUSH1 0x0 PUSH20 0xFFFFFFFFFFFFFFFFFFFFFFFFFFFFFFFFFFFFFFFF DUP3 AND SWAP1 POP SWAP2 SWAP1 POP JUMP JUMPDEST PUSH1 0x0 PUSH2 0xE23 DUP3 PUSH2 0xDF8 JUMP JUMPDEST SWAP1 POP SWAP2 SWAP1 POP JUMP JUMPDEST PUSH2 0xE33 DUP2 PUSH2 0xE18 JUMP JUMPDEST DUP3 MSTORE POP POP JUMP JUMPDEST PUSH1 0x0 PUSH1 0x20 DUP3 ADD SWAP1 POP PUSH2 0xE4E PUSH1 0x0 DUP4 ADD DUP5 PUSH2 0xE2A JUMP JUMPDEST SWAP3 SWAP2 POP POP JUMP JUMPDEST PUSH1 0x0 DUP2 ISZERO ISZERO SWAP1 POP SWAP2 SWAP1 POP JUMP JUMPDEST PUSH2 0xE69 DUP2 PUSH2 0xE54 JUMP JUMPDEST DUP3 MSTORE POP POP JUMP JUMPDEST PUSH1 0x0 PUSH1 0x20 DUP3 ADD SWAP1 POP PUSH2 0xE84 PUSH1 0x0 DUP4 ADD DUP5 PUSH2 0xE60 JUMP JUMPDEST SWAP3 SWAP2 POP POP JUMP JUMPDEST PUSH1 0x0 PUSH1 0x40 MLOAD SWAP1 POP SWAP1 JUMP JUMPDEST PUSH1 0x0 DUP1 REVERT JUMPDEST PUSH1 0x0 DUP1 REVERT JUMPDEST PUSH1 0x0 DUP2 SWAP1 POP SWAP2 SWAP1 POP JUMP JUMPDEST PUSH2 0xEB1 DUP2 PUSH2 0xE9E JUMP JUMPDEST DUP2 EQ PUSH2 0xEBC JUMPI PUSH1 0x0 DUP1 REVERT JUMPDEST POP JUMP JUMPDEST PUSH1 0x0 DUP2 CALLDATALOAD SWAP1 POP PUSH2 0xECE DUP2 PUSH2 0xEA8 JUMP JUMPDEST SWAP3 SWAP2 POP POP JUMP JUMPDEST PUSH1 0x0 DUP1 REVERT JUMPDEST PUSH1 0x0 PUSH1 0x1F NOT PUSH1 0x1F DUP4 ADD AND SWAP1 POP SWAP2 SWAP1 POP JUMP JUMPDEST PUSH32 0x4E487B7100000000000000000000000000000000000000000000000000000000 PUSH1 0x0 MSTORE PUSH1 0x41 PUSH1 0x4 MSTORE PUSH1 0x24 PUSH1 0x0 REVERT JUMPDEST PUSH2 0xF22 DUP3 PUSH2 0xED9 JUMP JUMPDEST DUP2 ADD DUP2 DUP2 LT PUSH8 0xFFFFFFFFFFFFFFFF DUP3 GT OR ISZERO PUSH2 0xF41 JUMPI PUSH2 0xF40 PUSH2 0xEEA JUMP JUMPDEST JUMPDEST DUP1 PUSH1 0x40 MSTORE POP POP POP JUMP JUMPDEST PUSH1 0x0 PUSH2 0xF54 PUSH2 0xE8A JUMP JUMPDEST SWAP1 POP PUSH2 0xF60 DUP3 DUP3 PUSH2 0xF19 JUMP JUMPDEST SWAP2 SWAP1 POP JUMP JUMPDEST PUSH1 0x0 PUSH8 0xFFFFFFFFFFFFFFFF DUP3 GT ISZERO PUSH2 0xF80 JUMPI PUSH2 0xF7F PUSH2 0xEEA JUMP JUMPDEST JUMPDEST PUSH1 0x20 DUP3 MUL SWAP1 POP PUSH1 0x20 DUP2 ADD SWAP1 POP SWAP2 SWAP1 POP JUMP JUMPDEST PUSH1 0x0 DUP1 REVERT JUMPDEST PUSH1 0x0 PUSH2 0xFA9 PUSH2 0xFA4 DUP5 PUSH2 0xF65 JUMP JUMPDEST PUSH2 0xF4A JUMP JUMPDEST SWAP1 POP DUP1 DUP4 DUP3 MSTORE PUSH1 0x20 DUP3 ADD SWAP1 POP PUSH1 0x20 DUP5 MUL DUP4 ADD DUP6 DUP2 GT ISZERO PUSH2 0xFCC JUMPI PUSH2 0xFCB PUSH2 0xF91 JUMP JUMPDEST JUMPDEST DUP4 JUMPDEST DUP2 DUP2 LT ISZERO PUSH2 0xFF5 JUMPI DUP1 PUSH2 0xFE1 DUP9 DUP3 PUSH2 0xEBF JUMP JUMPDEST DUP5 MSTORE PUSH1 0x20 DUP5 ADD SWAP4 POP POP PUSH1 0x20 DUP2 ADD SWAP1 POP PUSH2 0xFCE JUMP JUMPDEST POP POP POP SWAP4 SWAP3 POP POP POP JUMP JUMPDEST PUSH1 0x0 DUP3 PUSH1 0x1F DUP4 ADD SLT PUSH2 0x1014 JUMPI PUSH2 0x1013 PUSH2 0xED4 JUMP JUMPDEST JUMPDEST DUP2 CALLDATALOAD PUSH2 0x1024 DUP5 DUP3 PUSH1 0x20 DUP7 ADD PUSH2 0xF96 JUMP JUMPDEST SWAP2 POP POP SWAP3 SWAP2 POP POP JUMP JUMPDEST PUSH1 0x0 DUP1 PUSH1 0x40 DUP4 DUP6 SUB SLT ISZERO PUSH2 0x1044 JUMPI PUSH2 0x1043 PUSH2 0xE94 JUMP JUMPDEST JUMPDEST PUSH1 0x0 PUSH2 0x1052 DUP6 DUP3 DUP7 ADD PUSH2 0xEBF JUMP JUMPDEST SWAP3 POP POP PUSH1 0x20 DUP4 ADD CALLDATALOAD PUSH8 0xFFFFFFFFFFFFFFFF DUP2 GT ISZERO PUSH2 0x1073 JUMPI PUSH2 0x1072 PUSH2 0xE99 JUMP JUMPDEST JUMPDEST PUSH2 0x107F DUP6 DUP3 DUP7 ADD PUSH2 0xFFF JUMP JUMPDEST SWAP2 POP POP SWAP3 POP SWAP3 SWAP1 POP JUMP JUMPDEST PUSH1 0x0 PUSH4 0xFFFFFFFF DUP3 AND SWAP1 POP SWAP2 SWAP1 POP JUMP JUMPDEST PUSH2 0x10A2 DUP2 PUSH2 0x1089 JUMP JUMPDEST DUP3 MSTORE POP POP JUMP JUMPDEST PUSH1 0x0 PUSH1 0x20 DUP3 ADD SWAP1 POP PUSH2 0x10BD PUSH1 0x0 DUP4 ADD DUP5 PUSH2 0x1099 JUMP JUMPDEST SWAP3 SWAP2 POP POP JUMP JUMPDEST PUSH1 0x0 DUP1 REVERT JUMPDEST PUSH1 0x0 DUP1 DUP4 PUSH1 0x1F DUP5 ADD SLT PUSH2 0x10DE JUMPI PUSH2 0x10DD PUSH2 0xED4 JUMP JUMPDEST JUMPDEST DUP3 CALLDATALOAD SWAP1 POP PUSH8 0xFFFFFFFFFFFFFFFF DUP2 GT ISZERO PUSH2 0x10FB JUMPI PUSH2 0x10FA PUSH2 0x10C3 JUMP JUMPDEST JUMPDEST PUSH1 0x20 DUP4 ADD SWAP2 POP DUP4 PUSH1 0x1 DUP3 MUL DUP4 ADD GT ISZERO PUSH2 0x1117 JUMPI PUSH2 0x1116 PUSH2 0xF91 JUMP JUMPDEST JUMPDEST SWAP3 POP SWAP3 SWAP1 POP JUMP JUMPDEST PUSH1 0x0 DUP1 PUSH1 0x20 DUP4 DUP6 SUB SLT ISZERO PUSH2 0x1135 JUMPI PUSH2 0x1134 PUSH2 0xE94 JUMP JUMPDEST JUMPDEST PUSH1 0x0 DUP4 ADD CALLDATALOAD PUSH8 0xFFFFFFFFFFFFFFFF DUP2 GT ISZERO PUSH2 0x1153 JUMPI PUSH2 0x1152 PUSH2 0xE99 JUMP JUMPDEST JUMPDEST PUSH2 0x115F DUP6 DUP3 DUP7 ADD PUSH2 0x10C8 JUMP JUMPDEST SWAP3 POP SWAP3 POP POP SWAP3 POP SWAP3 SWAP1 POP JUMP JUMPDEST PUSH1 0x0 DUP2 SWAP1 POP SWAP2 SWAP1 POP JUMP JUMPDEST PUSH1 0x0 PUSH2 0x1190 PUSH2 0x118B PUSH2 0x1186 DUP5 PUSH2 0xDF8 JUMP JUMPDEST PUSH2 0x116B JUMP JUMPDEST PUSH2 0xDF8 JUMP JUMPDEST SWAP1 POP SWAP2 SWAP1 POP JUMP JUMPDEST PUSH1 0x0 PUSH2 0x11A2 DUP3 PUSH2 0x1175 JUMP JUMPDEST SWAP1 POP SWAP2 SWAP1 POP JUMP JUMPDEST PUSH1 0x0 PUSH2 0x11B4 DUP3 PUSH2 0x1197 JUMP JUMPDEST SWAP1 POP SWAP2 SWAP1 POP JUMP JUMPDEST PUSH2 0x11C4 DUP2 PUSH2 0x11A9 JUMP JUMPDEST DUP3 MSTORE POP POP JUMP JUMPDEST PUSH1 0x0 PUSH1 0x20 DUP3 ADD SWAP1 POP PUSH2 0x11DF PUSH1 0x0 DUP4 ADD DUP5 PUSH2 0x11BB JUMP JUMPDEST SWAP3 SWAP2 POP POP JUMP JUMPDEST PUSH1 0x0 DUP2 SWAP1 POP SWAP2 SWAP1 POP JUMP JUMPDEST PUSH2 0x11F8 DUP2 PUSH2 0x11E5 JUMP JUMPDEST DUP3 MSTORE POP POP JUMP JUMPDEST PUSH1 0x0 PUSH1 0x20 DUP3 ADD SWAP1 POP PUSH2 0x1213 PUSH1 0x0 DUP4 ADD DUP5 PUSH2 0x11EF JUMP JUMPDEST SWAP3 SWAP2 POP POP JUMP JUMPDEST PUSH1 0x0 DUP2 MLOAD SWAP1 POP SWAP2 SWAP1 POP JUMP JUMPDEST PUSH1 0x0 DUP3 DUP3 MSTORE PUSH1 0x20 DUP3 ADD SWAP1 POP SWAP3 SWAP2 POP POP JUMP JUMPDEST PUSH1 0x0 JUMPDEST DUP4 DUP2 LT ISZERO PUSH2 0x1253 JUMPI DUP1 DUP3 ADD MLOAD DUP2 DUP5 ADD MSTORE PUSH1 0x20 DUP2 ADD SWAP1 POP PUSH2 0x1238 JUMP JUMPDEST PUSH1 0x0 DUP5 DUP5 ADD MSTORE POP POP POP POP JUMP JUMPDEST PUSH1 0x0 PUSH2 0x126A DUP3 PUSH2 0x1219 JUMP JUMPDEST PUSH2 0x1274 DUP2 DUP6 PUSH2 0x1224 JUMP JUMPDEST SWAP4 POP PUSH2 0x1284 DUP2 DUP6 PUSH1 0x20 DUP7 ADD PUSH2 0x1235 JUMP JUMPDEST PUSH2 0x128D DUP2 PUSH2 0xED9 JUMP JUMPDEST DUP5 ADD SWAP2 POP POP SWAP3 SWAP2 POP POP JUMP JUMPDEST PUSH1 0x0 PUSH1 0x40 DUP3 ADD SWAP1 POP PUSH2 0x12AD PUSH1 0x0 DUP4 ADD DUP6 PUSH2 0xE60 JUMP JUMPDEST DUP2 DUP2 SUB PUSH1 0x20 DUP4 ADD MSTORE PUSH2 0x12BF DUP2 DUP5 PUSH2 0x125F JUMP JUMPDEST SWAP1 POP SWAP4 SWAP3 POP POP POP JUMP JUMPDEST PUSH1 0x0 DUP2 SWAP1 POP SWAP2 SWAP1 POP JUMP JUMPDEST PUSH2 0x12DB DUP2 PUSH2 0x12C8 JUMP JUMPDEST DUP3 MSTORE POP POP JUMP JUMPDEST PUSH1 0x0 PUSH1 0x20 DUP3 ADD SWAP1 POP PUSH2 0x12F6 PUSH1 0x0 DUP4 ADD DUP5 PUSH2 0x12D2 JUMP JUMPDEST SWAP3 SWAP2 POP POP JUMP JUMPDEST PUSH1 0x0 DUP1 PUSH1 0x40 DUP4 DUP6 SUB SLT ISZERO PUSH2 0x1313 JUMPI PUSH2 0x1312 PUSH2 0xE94 JUMP JUMPDEST JUMPDEST PUSH1 0x0 PUSH2 0x1321 DUP6 DUP3 DUP7 ADD PUSH2 0xEBF JUMP JUMPDEST SWAP3 POP POP PUSH1 0x20 PUSH2 0x1332 DUP6 DUP3 DUP7 ADD PUSH2 0xEBF JUMP JUMPDEST SWAP2 POP POP SWAP3 POP SWAP3 SWAP1 POP JUMP JUMPDEST PUSH1 0x0 PUSH2 0xFFFF DUP3 AND SWAP1 POP SWAP2 SWAP1 POP JUMP JUMPDEST PUSH2 0x1353 DUP2 PUSH2 0x133C JUMP JUMPDEST DUP3 MSTORE POP POP JUMP JUMPDEST PUSH1 0x0 PUSH1 0x20 DUP3 ADD SWAP1 POP PUSH2 0x136E PUSH1 0x0 DUP4 ADD DUP5 PUSH2 0x134A JUMP JUMPDEST SWAP3 SWAP2 POP POP JUMP JUMPDEST PUSH2 0x137D DUP2 PUSH2 0xE9E JUMP JUMPDEST DUP3 MSTORE POP POP JUMP JUMPDEST PUSH1 0x0 PUSH1 0x20 DUP3 ADD SWAP1 POP PUSH2 0x1398 PUSH1 0x0 DUP4 ADD DUP5 PUSH2 0x1374 JUMP JUMPDEST SWAP3 SWAP2 POP POP JUMP JUMPDEST PUSH1 0x0 PUSH1 0x20 DUP3 DUP5 SUB SLT ISZERO PUSH2 0x13B4 JUMPI PUSH2 0x13B3 PUSH2 0xE94 JUMP JUMPDEST JUMPDEST PUSH1 0x0 PUSH2 0x13C2 DUP5 DUP3 DUP6 ADD PUSH2 0xEBF JUMP JUMPDEST SWAP2 POP POP SWAP3 SWAP2 POP POP JUMP JUMPDEST PUSH1 0x0 PUSH1 0xFF DUP3 AND SWAP1 POP SWAP2 SWAP1 POP JUMP JUMPDEST PUSH2 0x13E1 DUP2 PUSH2 0x13CB JUMP JUMPDEST DUP3 MSTORE POP POP JUMP JUMPDEST PUSH1 0x0 PUSH1 0x80 DUP3 ADD SWAP1 POP PUSH2 0x13FC PUSH1 0x0 DUP4 ADD DUP8 PUSH2 0xE2A JUMP JUMPDEST PUSH2 0x1409 PUSH1 0x20 DUP4 ADD DUP7 PUSH2 0x1374 JUMP JUMPDEST PUSH2 0x1416 PUSH1 0x40 DUP4 ADD DUP6 PUSH2 0xE60 JUMP JUMPDEST PUSH2 0x1423 PUSH1 0x60 DUP4 ADD DUP5 PUSH2 0x13D8 JUMP JUMPDEST SWAP6 SWAP5 POP POP POP POP POP JUMP JUMPDEST PUSH1 0x0 DUP1 DUP4 PUSH1 0x1F DUP5 ADD SLT PUSH2 0x1442 JUMPI PUSH2 0x1441 PUSH2 0xED4 JUMP JUMPDEST JUMPDEST DUP3 CALLDATALOAD SWAP1 POP PUSH8 0xFFFFFFFFFFFFFFFF DUP2 GT ISZERO PUSH2 0x145F JUMPI PUSH2 0x145E PUSH2 0x10C3 JUMP JUMPDEST JUMPDEST PUSH1 0x20 DUP4 ADD SWAP2 POP DUP4 PUSH1 0x1 DUP3 MUL DUP4 ADD GT ISZERO PUSH2 0x147B JUMPI PUSH2 0x147A PUSH2 0xF91 JUMP JUMPDEST JUMPDEST SWAP3 POP SWAP3 SWAP1 POP JUMP JUMPDEST PUSH1 0x0 DUP1 PUSH1 0x20 DUP4 DUP6 SUB SLT ISZERO PUSH2 0x1499 JUMPI PUSH2 0x1498 PUSH2 0xE94 JUMP JUMPDEST JUMPDEST PUSH1 0x0 DUP4 ADD CALLDATALOAD PUSH8 0xFFFFFFFFFFFFFFFF DUP2 GT ISZERO PUSH2 0x14B7 JUMPI PUSH2 0x14B6 PUSH2 0xE99 JUMP JUMPDEST JUMPDEST PUSH2 0x14C3 DUP6 DUP3 DUP7 ADD PUSH2 0x142C JUMP JUMPDEST SWAP3 POP SWAP3 POP POP SWAP3 POP SWAP3 SWAP1 POP JUMP JUMPDEST PUSH1 0x0 PUSH1 0x40 DUP3 ADD SWAP1 POP PUSH2 0x14E4 PUSH1 0x0 DUP4 ADD DUP6 PUSH2 0xE2A JUMP JUMPDEST PUSH2 0x14F1 PUSH1 0x20 DUP4 ADD DUP5 PUSH2 0xE2A JUMP JUMPDEST SWAP4 SWAP3 POP POP POP JUMP JUMPDEST PUSH1 0x0 DUP3 DUP3 MSTORE PUSH1 0x20 DUP3 ADD SWAP1 POP SWAP3 SWAP2 POP POP JUMP JUMPDEST PUSH32 0x4E6F206C6F616E73206578697374000000000000000000000000000000000000 PUSH1 0x0 DUP3 ADD MSTORE POP JUMP JUMPDEST PUSH1 0x0 PUSH2 0x153F PUSH1 0xE DUP4 PUSH2 0x14F8 JUMP JUMPDEST SWAP2 POP PUSH2 0x154A DUP3 PUSH2 0x1509 JUMP JUMPDEST PUSH1 0x20 DUP3 ADD SWAP1 POP SWAP2 SWAP1 POP JUMP JUMPDEST PUSH1 0x0 PUSH1 0x20 DUP3 ADD SWAP1 POP DUP2 DUP2 SUB PUSH1 0x0 DUP4 ADD MSTORE PUSH2 0x156E DUP2 PUSH2 0x1532 JUMP JUMPDEST SWAP1 POP SWAP2 SWAP1 POP JUMP JUMPDEST PUSH1 0x0 PUSH1 0xA0 DUP3 ADD SWAP1 POP PUSH2 0x158A PUSH1 0x0 DUP4 ADD DUP9 PUSH2 0x11EF JUMP JUMPDEST PUSH2 0x1597 PUSH1 0x20 DUP4 ADD DUP8 PUSH2 0xDCE JUMP JUMPDEST PUSH2 0x15A4 PUSH1 0x40 DUP4 ADD DUP7 PUSH2 0x134A JUMP JUMPDEST PUSH2 0x15B1 PUSH1 0x60 DUP4 ADD DUP6 PUSH2 0x1099 JUMP JUMPDEST PUSH2 0x15BE PUSH1 0x80 DUP4 ADD DUP5 PUSH2 0x1099 JUMP JUMPDEST SWAP7 SWAP6 POP POP POP POP POP POP JUMP JUMPDEST PUSH1 0x0 DUP2 MLOAD SWAP1 POP PUSH2 0x15D7 DUP2 PUSH2 0xEA8 JUMP JUMPDEST SWAP3 SWAP2 POP POP JUMP JUMPDEST PUSH1 0x0 PUSH1 0x20 DUP3 DUP5 SUB SLT ISZERO PUSH2 0x15F3 JUMPI PUSH2 0x15F2 PUSH2 0xE94 JUMP JUMPDEST JUMPDEST PUSH1 0x0 PUSH2 0x1601 DUP5 DUP3 DUP6 ADD PUSH2 0x15C8 JUMP JUMPDEST SWAP2 POP POP SWAP3 SWAP2 POP POP JUMP JUMPDEST PUSH32 0x4E487B7100000000000000000000000000000000000000000000000000000000 PUSH1 0x0 MSTORE PUSH1 0x11 PUSH1 0x4 MSTORE PUSH1 0x24 PUSH1 0x0 REVERT JUMPDEST PUSH1 0x0 PUSH2 0x1644 DUP3 PUSH2 0xE9E JUMP JUMPDEST SWAP2 POP PUSH32 0xFFFFFFFFFFFFFFFFFFFFFFFFFFFFFFFFFFFFFFFFFFFFFFFFFFFFFFFFFFFFFFFF DUP3 SUB PUSH2 0x1676 JUMPI PUSH2 0x1675 PUSH2 0x160A JUMP JUMPDEST JUMPDEST PUSH1 0x1 DUP3 ADD SWAP1 POP SWAP2 SWAP1 POP JUMP JUMPDEST PUSH1 0x0 PUSH10 0xFFFFFFFFFFFFFFFFFFFF DUP3 AND SWAP1 POP SWAP2 SWAP1 POP JUMP JUMPDEST PUSH2 0x16A0 DUP2 PUSH2 0x1681 JUMP JUMPDEST DUP2 EQ PUSH2 0x16AB JUMPI PUSH1 0x0 DUP1 REVERT JUMPDEST POP JUMP JUMPDEST PUSH1 0x0 DUP2 MLOAD SWAP1 POP PUSH2 0x16BD DUP2 PUSH2 0x1697 JUMP JUMPDEST SWAP3 SWAP2 POP POP JUMP JUMPDEST PUSH2 0x16CC DUP2 PUSH2 0x12C8 JUMP JUMPDEST DUP2 EQ PUSH2 0x16D7 JUMPI PUSH1 0x0 DUP1 REVERT JUMPDEST POP JUMP JUMPDEST PUSH1 0x0 DUP2 MLOAD SWAP1 POP PUSH2 0x16E9 DUP2 PUSH2 0x16C3 JUMP JUMPDEST SWAP3 SWAP2 POP POP JUMP JUMPDEST PUSH1 0x0 DUP1 PUSH1 0x0 DUP1 PUSH1 0x0 PUSH1 0xA0 DUP7 DUP9 SUB SLT ISZERO PUSH2 0x170B JUMPI PUSH2 0x170A PUSH2 0xE94 JUMP JUMPDEST JUMPDEST PUSH1 0x0 PUSH2 0x1719 DUP9 DUP3 DUP10 ADD PUSH2 0x16AE JUMP JUMPDEST SWAP6 POP POP PUSH1 0x20 PUSH2 0x172A DUP9 DUP3 DUP10 ADD PUSH2 0x16DA JUMP JUMPDEST SWAP5 POP POP PUSH1 0x40 PUSH2 0x173B DUP9 DUP3 DUP10 ADD PUSH2 0x15C8 JUMP JUMPDEST SWAP4 POP POP PUSH1 0x60 PUSH2 0x174C DUP9 DUP3 DUP10 ADD PUSH2 0x15C8 JUMP JUMPDEST SWAP3 POP POP PUSH1 0x80 PUSH2 0x175D DUP9 DUP3 DUP10 ADD PUSH2 0x16AE JUMP JUMPDEST SWAP2 POP POP SWAP3 SWAP6 POP SWAP3 SWAP6 SWAP1 SWAP4 POP JUMP JUMPDEST PUSH2 0x1773 DUP2 PUSH2 0x13CB JUMP JUMPDEST DUP2 EQ PUSH2 0x177E JUMPI PUSH1 0x0 DUP1 REVERT JUMPDEST POP JUMP JUMPDEST PUSH1 0x0 DUP2 MLOAD SWAP1 POP PUSH2 0x1790 DUP2 PUSH2 0x176A JUMP JUMPDEST SWAP3 SWAP2 POP POP JUMP JUMPDEST PUSH1 0x0 PUSH1 0x20 DUP3 DUP5 SUB SLT ISZERO PUSH2 0x17AC JUMPI PUSH2 0x17AB PUSH2 0xE94 JUMP JUMPDEST JUMPDEST PUSH1 0x0 PUSH2 0x17BA DUP5 DUP3 DUP6 ADD PUSH2 0x1781 JUMP JUMPDEST SWAP2 POP POP SWAP3 SWAP2 POP POP JUMP JUMPDEST PUSH32 0x5269736B20746F6F20686967682028617070726F76616C290000000000000000 PUSH1 0x0 DUP3 ADD MSTORE POP JUMP JUMPDEST PUSH1 0x0 PUSH2 0x17F9 PUSH1 0x18 DUP4 PUSH2 0x14F8 JUMP JUMPDEST SWAP2 POP PUSH2 0x1804 DUP3 PUSH2 0x17C3 JUMP JUMPDEST PUSH1 0x20 DUP3 ADD SWAP1 POP SWAP2 SWAP1 POP JUMP JUMPDEST PUSH1 0x0 PUSH1 0x20 DUP3 ADD SWAP1 POP DUP2 DUP2 SUB PUSH1 0x0 DUP4 ADD MSTORE PUSH2 0x1828 DUP2 PUSH2 0x17EC JUMP JUMPDEST SWAP1 POP SWAP2 SWAP1 POP JUMP JUMPDEST PUSH1 0x0 PUSH1 0x60 DUP3 ADD SWAP1 POP PUSH2 0x1844 PUSH1 0x0 DUP4 ADD DUP7 PUSH2 0x1374 JUMP JUMPDEST PUSH2 0x1851 PUSH1 0x20 DUP4 ADD DUP6 PUSH2 0x1374 JUMP JUMPDEST PUSH2 0x185E PUSH1 0x40 DUP4 ADD DUP5 PUSH2 0xE2A JUMP JUMPDEST SWAP5 SWAP4 POP POP POP POP JUMP JUMPDEST PUSH32 0x416C726561647920726570616964000000000000000000000000000000000000 PUSH1 0x0 DUP3 ADD MSTORE POP JUMP JUMPDEST PUSH1 0x0 PUSH2 0x189C PUSH1 0xE DUP4 PUSH2 0x14F8 JUMP JUMPDEST SWAP2 POP PUSH2 0x18A7 DUP3 PUSH2 0x1866 JUMP JUMPDEST PUSH1 0x20 DUP3 ADD SWAP1 POP SWAP2 SWAP1 POP JUMP JUMPDEST PUSH1 0x0 PUSH1 0x20 DUP3 ADD SWAP1 POP DUP2 DUP2 SUB PUSH1 0x0 DUP4 ADD MSTORE PUSH2 0x18CB DUP2 PUSH2 0x188F JUMP JUMPDEST SWAP1 POP SWAP2 SWAP1 POP JUMP JUMPDEST PUSH32 0x4F6E6C792043434950526F757465720000000000000000000000000000000000 PUSH1 0x0 DUP3 ADD MSTORE POP JUMP JUMPDEST PUSH1 0x0 PUSH2 0x1908 PUSH1 0xF DUP4 PUSH2 0x14F8 JUMP JUMPDEST SWAP2 POP PUSH2 0x1913 DUP3 PUSH2 0x18D2 JUMP JUMPDEST PUSH1 0x20 DUP3 ADD SWAP1 POP SWAP2 SWAP1 POP JUMP JUMPDEST PUSH1 0x0 PUSH1 0x20 DUP3 ADD SWAP1 POP DUP2 DUP2 SUB PUSH1 0x0 DUP4 ADD MSTORE PUSH2 0x1937 DUP2 PUSH2 0x18FB JUMP JUMPDEST SWAP1 POP SWAP2 SWAP1 POP JUMP JUMPDEST PUSH32 0x4E487B7100000000000000000000000000000000000000000000000000000000 PUSH1 0x0 MSTORE PUSH1 0x32 PUSH1 0x4 MSTORE PUSH1 0x24 PUSH1 0x0 REVERT JUMPDEST PUSH32 0x4E487B7100000000000000000000000000000000000000000000000000000000 PUSH1 0x0 MSTORE PUSH1 0x12 PUSH1 0x4 MSTORE PUSH1 0x24 PUSH1 0x0 REVERT JUMPDEST PUSH1 0x0 PUSH2 0x19A7 DUP3 PUSH2 0xE9E JUMP JUMPDEST SWAP2 POP PUSH2 0x19B2 DUP4 PUSH2 0xE9E JUMP JUMPDEST SWAP3 POP DUP3 PUSH2 0x19C2 JUMPI PUSH2 0x19C1 PUSH2 0x196D JUMP JUMPDEST JUMPDEST DUP3 DUP3 MOD SWAP1 POP SWAP3 SWAP2 POP POP JUMP JUMPDEST PUSH32 0x5269736B20746F6F206869676800000000000000000000000000000000000000 PUSH1 0x0 DUP3 ADD MSTORE POP JUMP JUMPDEST PUSH1 0x0 PUSH2 0x1A03 PUSH1 0xD DUP4 PUSH2 0x14F8 JUMP JUMPDEST SWAP2 POP PUSH2 0x1A0E DUP3 PUSH2 0x19CD JUMP JUMPDEST PUSH1 0x20 DUP3 ADD SWAP1 POP SWAP2 SWAP1 POP JUMP JUMPDEST PUSH1 0x0 PUSH1 0x20 DUP3 ADD SWAP1 POP DUP2 DUP2 SUB PUSH1 0x0 DUP4 ADD MSTORE PUSH2 0x1A32 DUP2 PUSH2 0x19F6 JUMP JUMPDEST SWAP1 POP SWAP2 SWAP1 POP JUMP JUMPDEST PUSH1 0x0 PUSH1 0x80 DUP3 ADD SWAP1 POP PUSH2 0x1A4E PUSH1 0x0 DUP4 ADD DUP8 PUSH2 0xE2A JUMP JUMPDEST PUSH2 0x1A5B PUSH1 0x20 DUP4 ADD DUP7 PUSH2 0x1374 JUMP JUMPDEST PUSH2 0x1A68 PUSH1 0x40 DUP4 ADD DUP6 PUSH2 0x1374 JUMP JUMPDEST PUSH2 0x1A75 PUSH1 0x60 DUP4 ADD DUP5 PUSH2 0x13D8 JUMP JUMPDEST SWAP6 SWAP5 POP POP POP POP POP JUMP INVALID LOG2 PUSH5 0x6970667358 0x22 SLT KECCAK256 DUP16 JUMP LOG2 0xAE CALLER 0xE1 CREATE DUP12 0xC9 SLT MSIZE DUP5 0x25 0x4B CALLVALUE 0xF7 0xF6 0x4E RETURNDATACOPY AND SHR DUP6 0xB8 JUMPDEST SHR 0xB7 0xC7 SELFBALANCE SWAP5 XOR MSIZE 0x4D PUSH5 0x736F6C6343 STOP ADDMOD EQ STOP CALLER "},"methodIdentifiers":{"callbackGasLimit()":"24f74697","ccipRouter()":"0de22984","checkHealth()":"1753bbd7","checkUpkeep(bytes)":"6e04ff0d","getLatestETHPrice()":"777e0d86","keyHash()":"61728f39","liquidateLoan(uint256)":"ccdd9f5d","loanId()":"c95669a5","loans(uint256)":"e1ec3c68","numWords()":"7ccfd7fc","performUpkeep(bytes)":"4585e33b","rawFulfillRandomWords(uint256,uint256[])":"1fe543e3","receiveCrossChainMessage(string)":"e86490e2","receiveLoanApproval(uint256,uint256)":"86fcdc19","requestAudit()":"2bdf0038","requestConfirmations()":"b0fb162f","riskManager()":"47842663","subscriptionId()":"09c1ba2e"}}}}}