{
  "_format": "hh-sol-artifact-1",
  "contractName": "VaultCore",
  "sourceName": "contracts/VaultCoreUSDC.sol",
  "abi": [
    {
      "inputs": [
        {
          "internalType": "address",
          "name": "_ethPriceFeed",
          "type": "address"
        },
        {
          "internalType": "address",
          "name": "_usdcPriceFeed",
          "type": "address"
        },
        {
          "internalType": "address",
          "name": "_riskManager",
          "type": "address"
        },
        {
          "internalType": "address",
          "name": "_ccipRouter",
          "type": "address"
        }
      ],
      "stateMutability": "nonpayable",
      "type": "constructor"
    },
    {
      "anonymous": false,
      "inputs": [
        {
          "indexed": false,
          "internalType": "uint256",
          "name": "assetId",
          "type": "uint256"
        },
        {
          "indexed": false,
          "internalType": "uint256",
          "name": "amount",
          "type": "uint256"
        },
        {
          "indexed": false,
          "internalType": "address",
          "name": "borrower",
          "type": "address"
        }
      ],
      "name": "CrossChainLoanApproval",
      "type": "event"
    },
    {
      "anonymous": false,
      "inputs": [
        {
          "indexed": false,
          "internalType": "address",
          "name": "borrower",
          "type": "address"
        },
        {
          "indexed": false,
          "internalType": "uint256",
          "name": "amount",
          "type": "uint256"
        },
        {
          "indexed": false,
          "internalType": "uint256",
          "name": "loanId",
          "type": "uint256"
        },
        {
          "indexed": false,
          "internalType": "uint8",
          "name": "riskTier",
          "type": "uint8"
        },
        {
          "indexed": false,
          "internalType": "address",
          "name": "asset",
          "type": "address"
        }
      ],
      "name": "LoanIssued",
      "type": "event"
    },
    {
      "anonymous": false,
      "inputs": [
        {
          "indexed": false,
          "internalType": "uint256",
          "name": "loanId",
          "type": "uint256"
        }
      ],
      "name": "LoanLiquidated",
      "type": "event"
    },
    {
      "inputs": [],
      "name": "ccipRouter",
      "outputs": [
        {
          "internalType": "address",
          "name": "",
          "type": "address"
        }
      ],
      "stateMutability": "view",
      "type": "function"
    },
    {
      "inputs": [],
      "name": "checkHealth",
      "outputs": [
        {
          "internalType": "bool",
          "name": "",
          "type": "bool"
        }
      ],
      "stateMutability": "view",
      "type": "function"
    },
    {
      "inputs": [
        {
          "internalType": "bytes",
          "name": "",
          "type": "bytes"
        }
      ],
      "name": "checkUpkeep",
      "outputs": [
        {
          "internalType": "bool",
          "name": "upkeepNeeded",
          "type": "bool"
        },
        {
          "internalType": "bytes",
          "name": "performData",
          "type": "bytes"
        }
      ],
      "stateMutability": "view",
      "type": "function"
    },
    {
      "inputs": [],
      "name": "getLatestETHPrice",
      "outputs": [
        {
          "internalType": "int256",
          "name": "",
          "type": "int256"
        }
      ],
      "stateMutability": "view",
      "type": "function"
    },
    {
      "inputs": [],
      "name": "getLatestUSDCPrice",
      "outputs": [
        {
          "internalType": "int256",
          "name": "",
          "type": "int256"
        }
      ],
      "stateMutability": "view",
      "type": "function"
    },
    {
      "inputs": [
        {
          "internalType": "uint256",
          "name": "_loanId",
          "type": "uint256"
        }
      ],
      "name": "liquidateLoan",
      "outputs": [],
      "stateMutability": "nonpayable",
      "type": "function"
    },
    {
      "inputs": [],
      "name": "loanId",
      "outputs": [
        {
          "internalType": "uint256",
          "name": "",
          "type": "uint256"
        }
      ],
      "stateMutability": "view",
      "type": "function"
    },
    {
      "inputs": [
        {
          "internalType": "uint256",
          "name": "",
          "type": "uint256"
        }
      ],
      "name": "loans",
      "outputs": [
        {
          "internalType": "address",
          "name": "borrower",
          "type": "address"
        },
        {
          "internalType": "uint256",
          "name": "amount",
          "type": "uint256"
        },
        {
          "internalType": "bool",
          "name": "repaid",
          "type": "bool"
        },
        {
          "internalType": "uint8",
          "name": "riskTier",
          "type": "uint8"
        },
        {
          "internalType": "address",
          "name": "asset",
          "type": "address"
        }
      ],
      "stateMutability": "view",
      "type": "function"
    },
    {
      "inputs": [
        {
          "internalType": "bytes",
          "name": "performData",
          "type": "bytes"
        }
      ],
      "name": "performUpkeep",
      "outputs": [],
      "stateMutability": "nonpayable",
      "type": "function"
    },
    {
      "inputs": [
        {
          "internalType": "string",
          "name": "data",
          "type": "string"
        }
      ],
      "name": "receiveCrossChainMessage",
      "outputs": [],
      "stateMutability": "nonpayable",
      "type": "function"
    },
    {
      "inputs": [
        {
          "internalType": "uint256",
          "name": "assetId",
          "type": "uint256"
        },
        {
          "internalType": "uint256",
          "name": "amount",
          "type": "uint256"
        },
        {
          "internalType": "address",
          "name": "asset",
          "type": "address"
        }
      ],
      "name": "receiveLoanApproval",
      "outputs": [],
      "stateMutability": "nonpayable",
      "type": "function"
    },
    {
      "inputs": [],
      "name": "riskManager",
      "outputs": [
        {
          "internalType": "contract IAIRiskManager",
          "name": "",
          "type": "address"
        }
      ],
      "stateMutability": "view",
      "type": "function"
    }
  ],
  "bytecode": "0x60806040523480156200001157600080fd5b50604051620015cc380380620015cc8339818101604052810190620000379190620001ae565b836000806101000a81548173ffffffffffffffffffffffffffffffffffffffff021916908373ffffffffffffffffffffffffffffffffffffffff16021790555082600160006101000a81548173ffffffffffffffffffffffffffffffffffffffff021916908373ffffffffffffffffffffffffffffffffffffffff16021790555081600260006101000a81548173ffffffffffffffffffffffffffffffffffffffff021916908373ffffffffffffffffffffffffffffffffffffffff16021790555080600360006101000a81548173ffffffffffffffffffffffffffffffffffffffff021916908373ffffffffffffffffffffffffffffffffffffffff1602179055505050505062000220565b600080fd5b600073ffffffffffffffffffffffffffffffffffffffff82169050919050565b6000620001768262000149565b9050919050565b620001888162000169565b81146200019457600080fd5b50565b600081519050620001a8816200017d565b92915050565b60008060008060808587031215620001cb57620001ca62000144565b5b6000620001db8782880162000197565b9450506020620001ee8782880162000197565b9350506040620002018782880162000197565b9250506060620002148782880162000197565b91505092959194509250565b61139c80620002306000396000f3fe608060405234801561001057600080fd5b50600436106100b45760003560e01c8063777e0d8611610071578063777e0d861461017c5780637f281a641461019a578063c95669a5146101b8578063ccdd9f5d146101d6578063e1ec3c68146101f2578063e86490e214610226576100b4565b80630de22984146100b95780631753bbd7146100d7578063377428a0146100f55780634585e33b14610111578063478426631461012d5780636e04ff0d1461014b575b600080fd5b6100c1610242565b6040516100ce9190610b20565b60405180910390f35b6100df610268565b6040516100ec9190610b56565b60405180910390f35b61010f600480360381019061010a9190610bdd565b610271565b005b61012b60048036038101906101269190610c95565b6102bb565b005b6101356102dc565b6040516101429190610d41565b60405180910390f35b61016560048036038101906101609190610c95565b610302565b604051610173929190610dec565b60405180910390f35b6101846104b7565b6040516101919190610e35565b60405180910390f35b6101a2610556565b6040516101af9190610e35565b60405180910390f35b6101c06105f7565b6040516101cd9190610e5f565b60405180910390f35b6101f060048036038101906101eb9190610e7a565b6105fd565b005b61020c60048036038101906102079190610e7a565b6106ca565b60405161021d959493929190610ec3565b60405180910390f35b610240600480360381019061023b9190610f6c565b61075a565b005b600360009054906101000a900473ffffffffffffffffffffffffffffffffffffffff1681565b60006001905090565b61027b82826107ee565b7f3c227ef12195f88b4263ee086a2732948a4e23244a4277294b8c9b177d56aa5b8383336040516102ae93929190610fb9565b60405180910390a1505050565b600082828101906102cc9190610e7a565b90506102d7816105fd565b505050565b600260009054906101000a900473ffffffffffffffffffffffffffffffffffffffff1681565b6000606060005b600554811015610498576004600082815260200190815260200160002060020160009054906101000a900460ff161580156104545750610453600460008381526020019081526020016000206040518060a00160405290816000820160009054906101000a900473ffffffffffffffffffffffffffffffffffffffff1673ffffffffffffffffffffffffffffffffffffffff1673ffffffffffffffffffffffffffffffffffffffff168152602001600182015481526020016002820160009054906101000a900460ff161515151581526020016002820160019054906101000a900460ff1660ff1660ff1681526020016002820160029054906101000a900473ffffffffffffffffffffffffffffffffffffffff1673ffffffffffffffffffffffffffffffffffffffff1673ffffffffffffffffffffffffffffffffffffffff1681525050610a7d565b5b156104855760018160405160200161046c9190610e5f565b60405160208183030381529060405292509250506104b0565b80806104909061101f565b915050610309565b50600060405180602001604052806000815250915091505b9250929050565b60008060008054906101000a900473ffffffffffffffffffffffffffffffffffffffff1673ffffffffffffffffffffffffffffffffffffffff1663feaf968c6040518163ffffffff1660e01b815260040160a060405180830381865afa158015610525573d6000803e3d6000fd5b505050506040513d601f19601f8201168201806040525081019061054991906110ea565b5050509150508091505090565b600080600160009054906101000a900473ffffffffffffffffffffffffffffffffffffffff1673ffffffffffffffffffffffffffffffffffffffff1663feaf968c6040518163ffffffff1660e01b815260040160a060405180830381865afa1580156105c6573d6000803e3d6000fd5b505050506040513d601f19601f820116820180604052508101906105ea91906110ea565b5050509150508091505090565b60055481565b6004600082815260200190815260200160002060020160009054906101000a900460ff1615610661576040517f08c379a0000000000000000000000000000000000000000000000000000000008152600401610658906111c2565b60405180910390fd5b60016004600083815260200190815260200160002060020160006101000a81548160ff0219169083151502179055507faf91ffe368225045d42f7c2b4b90feb438133ac1e375e73bc9066652b70a1d77816040516106bf9190610e5f565b60405180910390a150565b60046020528060005260406000206000915090508060000160009054906101000a900473ffffffffffffffffffffffffffffffffffffffff16908060010154908060020160009054906101000a900460ff16908060020160019054906101000a900460ff16908060020160029054906101000a900473ffffffffffffffffffffffffffffffffffffffff16905085565b600360009054906101000a900473ffffffffffffffffffffffffffffffffffffffff1673ffffffffffffffffffffffffffffffffffffffff163373ffffffffffffffffffffffffffffffffffffffff16146107ea576040517f08c379a00000000000000000000000000000000000000000000000000000000081526004016107e19061122e565b60405180910390fd5b5050565b6000600260009054906101000a900473ffffffffffffffffffffffffffffffffffffffff1673ffffffffffffffffffffffffffffffffffffffff1663dc08706d336040518263ffffffff1660e01b815260040161084b9190610b20565b602060405180830381865afa158015610868573d6000803e3d6000fd5b505050506040513d601f19601f8201168201806040525081019061088c919061127a565b905060028160ff1610156108d5576040517f08c379a00000000000000000000000000000000000000000000000000000000081526004016108cc906112f3565b60405180910390fd5b6040518060a001604052803373ffffffffffffffffffffffffffffffffffffffff1681526020018481526020016000151581526020018260ff1681526020018373ffffffffffffffffffffffffffffffffffffffff1681525060046000600554815260200190815260200160002060008201518160000160006101000a81548173ffffffffffffffffffffffffffffffffffffffff021916908373ffffffffffffffffffffffffffffffffffffffff1602179055506020820151816001015560408201518160020160006101000a81548160ff02191690831515021790555060608201518160020160016101000a81548160ff021916908360ff16021790555060808201518160020160026101000a81548173ffffffffffffffffffffffffffffffffffffffff021916908373ffffffffffffffffffffffffffffffffffffffff1602179055509050507f95e25c449a85d5d8b0e05aeb082d30dfa9d24946dbc20013cebfaa12ed7c9a3133846005548486604051610a58959493929190611313565b60405180910390a160056000815480929190610a739061101f565b9190505550505050565b60008073ffffffffffffffffffffffffffffffffffffffff16826080015173ffffffffffffffffffffffffffffffffffffffff1603610acc57670de0b6b3a76400008260200151119050610ada565b633b9aca0082602001511190505b919050565b600073ffffffffffffffffffffffffffffffffffffffff82169050919050565b6000610b0a82610adf565b9050919050565b610b1a81610aff565b82525050565b6000602082019050610b356000830184610b11565b92915050565b60008115159050919050565b610b5081610b3b565b82525050565b6000602082019050610b6b6000830184610b47565b92915050565b600080fd5b600080fd5b6000819050919050565b610b8e81610b7b565b8114610b9957600080fd5b50565b600081359050610bab81610b85565b92915050565b610bba81610aff565b8114610bc557600080fd5b50565b600081359050610bd781610bb1565b92915050565b600080600060608486031215610bf657610bf5610b71565b5b6000610c0486828701610b9c565b9350506020610c1586828701610b9c565b9250506040610c2686828701610bc8565b9150509250925092565b600080fd5b600080fd5b600080fd5b60008083601f840112610c5557610c54610c30565b5b8235905067ffffffffffffffff811115610c7257610c71610c35565b5b602083019150836001820283011115610c8e57610c8d610c3a565b5b9250929050565b60008060208385031215610cac57610cab610b71565b5b600083013567ffffffffffffffff811115610cca57610cc9610b76565b5b610cd685828601610c3f565b92509250509250929050565b6000819050919050565b6000610d07610d02610cfd84610adf565b610ce2565b610adf565b9050919050565b6000610d1982610cec565b9050919050565b6000610d2b82610d0e565b9050919050565b610d3b81610d20565b82525050565b6000602082019050610d566000830184610d32565b92915050565b600081519050919050565b600082825260208201905092915050565b60005b83811015610d96578082015181840152602081019050610d7b565b60008484015250505050565b6000601f19601f8301169050919050565b6000610dbe82610d5c565b610dc88185610d67565b9350610dd8818560208601610d78565b610de181610da2565b840191505092915050565b6000604082019050610e016000830185610b47565b8181036020830152610e138184610db3565b90509392505050565b6000819050919050565b610e2f81610e1c565b82525050565b6000602082019050610e4a6000830184610e26565b92915050565b610e5981610b7b565b82525050565b6000602082019050610e746000830184610e50565b92915050565b600060208284031215610e9057610e8f610b71565b5b6000610e9e84828501610b9c565b91505092915050565b600060ff82169050919050565b610ebd81610ea7565b82525050565b600060a082019050610ed86000830188610b11565b610ee56020830187610e50565b610ef26040830186610b47565b610eff6060830185610eb4565b610f0c6080830184610b11565b9695505050505050565b60008083601f840112610f2c57610f2b610c30565b5b8235905067ffffffffffffffff811115610f4957610f48610c35565b5b602083019150836001820283011115610f6557610f64610c3a565b5b9250929050565b60008060208385031215610f8357610f82610b71565b5b600083013567ffffffffffffffff811115610fa157610fa0610b76565b5b610fad85828601610f16565b92509250509250929050565b6000606082019050610fce6000830186610e50565b610fdb6020830185610e50565b610fe86040830184610b11565b949350505050565b7f4e487b7100000000000000000000000000000000000000000000000000000000600052601160045260246000fd5b600061102a82610b7b565b91507fffffffffffffffffffffffffffffffffffffffffffffffffffffffffffffffff820361105c5761105b610ff0565b5b600182019050919050565b600069ffffffffffffffffffff82169050919050565b61108681611067565b811461109157600080fd5b50565b6000815190506110a38161107d565b92915050565b6110b281610e1c565b81146110bd57600080fd5b50565b6000815190506110cf816110a9565b92915050565b6000815190506110e481610b85565b92915050565b600080600080600060a0868803121561110657611105610b71565b5b600061111488828901611094565b9550506020611125888289016110c0565b9450506040611136888289016110d5565b9350506060611147888289016110d5565b925050608061115888828901611094565b9150509295509295909350565b600082825260208201905092915050565b7f416c726561647920726570616964000000000000000000000000000000000000600082015250565b60006111ac600e83611165565b91506111b782611176565b602082019050919050565b600060208201905081810360008301526111db8161119f565b9050919050565b7f4f6e6c792043434950526f757465720000000000000000000000000000000000600082015250565b6000611218600f83611165565b9150611223826111e2565b602082019050919050565b600060208201905081810360008301526112478161120b565b9050919050565b61125781610ea7565b811461126257600080fd5b50565b6000815190506112748161124e565b92915050565b6000602082840312156112905761128f610b71565b5b600061129e84828501611265565b91505092915050565b7f5269736b20746f6f206869676800000000000000000000000000000000000000600082015250565b60006112dd600d83611165565b91506112e8826112a7565b602082019050919050565b6000602082019050818103600083015261130c816112d0565b9050919050565b600060a0820190506113286000830188610b11565b6113356020830187610e50565b6113426040830186610e50565b61134f6060830185610eb4565b61135c6080830184610b11565b969550505050505056fea26469706673582212200273bd49ec434cb36d8639a7b0926378ffbe89c37b2b99658bb1332c06f5d45664736f6c63430008140033",
  "linkReferences": {},
  "deployedLinkReferences": {}
}