{
  "_format": "hh-sol-artifact-1",
  "contractName": "CCIPRouter",
  "sourceName": "contracts/CCIPRouter.sol",
  "abi": [
    {
      "anonymous": false,
      "inputs": [
        {
          "indexed": false,
          "internalType": "address",
          "name": "from",
          "type": "address"
        },
        {
          "indexed": false,
          "internalType": "string",
          "name": "data",
          "type": "string"
        }
      ],
      "name": "MessageReceived",
      "type": "event"
    },
    {
      "anonymous": false,
      "inputs": [
        {
          "indexed": false,
          "internalType": "address",
          "name": "to",
          "type": "address"
        },
        {
          "indexed": false,
          "internalType": "string",
          "name": "data",
          "type": "string"
        }
      ],
      "name": "MessageSent",
      "type": "event"
    },
    {
      "inputs": [
        {
          "internalType": "string",
          "name": "data",
          "type": "string"
        }
      ],
      "name": "receiveMessage",
      "outputs": [],
      "stateMutability": "nonpayable",
      "type": "function"
    },
    {
      "inputs": [
        {
          "internalType": "address",
          "name": "to",
          "type": "address"
        },
        {
          "internalType": "string",
          "name": "data",
          "type": "string"
        }
      ],
      "name": "sendMessage",
      "outputs": [],
      "stateMutability": "nonpayable",
      "type": "function"
    }
  ],
  "bytecode": "0x608060405234801561001057600080fd5b50610341806100206000396000f3fe608060405234801561001057600080fd5b50600436106100365760003560e01c80632f049bf31461003b578063de6f24bb14610057575b600080fd5b61005560048036038101906100509190610161565b610073565b005b610071600480360381019061006c919061020c565b6100b2565b005b7f15340f1d3815fc99b59e3b9ed010321f64951d6e6a43c97a9e92713e7cd6ad173383836040516100a6939291906102d9565b60405180910390a15050565b7f0d7fccda06d6eb51c23cbd16d49b9b3f3ebafb002dba1b074895cbb35d0e81308383836040516100e5939291906102d9565b60405180910390a1505050565b600080fd5b600080fd5b600080fd5b600080fd5b600080fd5b60008083601f840112610121576101206100fc565b5b8235905067ffffffffffffffff81111561013e5761013d610101565b5b60208301915083600182028301111561015a57610159610106565b5b9250929050565b60008060208385031215610178576101776100f2565b5b600083013567ffffffffffffffff811115610196576101956100f7565b5b6101a28582860161010b565b92509250509250929050565b600073ffffffffffffffffffffffffffffffffffffffff82169050919050565b60006101d9826101ae565b9050919050565b6101e9816101ce565b81146101f457600080fd5b50565b600081359050610206816101e0565b92915050565b600080600060408486031215610225576102246100f2565b5b6000610233868287016101f7565b935050602084013567ffffffffffffffff811115610254576102536100f7565b5b6102608682870161010b565b92509250509250925092565b610275816101ce565b82525050565b600082825260208201905092915050565b82818337600083830152505050565b6000601f19601f8301169050919050565b60006102b8838561027b565b93506102c583858461028c565b6102ce8361029b565b840190509392505050565b60006040820190506102ee600083018661026c565b81810360208301526103018184866102ac565b905094935050505056fea2646970667358221220f636c6d3588d243d8131d5a2d0a1b19227a1929efc4c676909f205da0b4e6ef764736f6c63430008140033",
  "linkReferences": {},
  "deployedLinkReferences": {}
}